S011000073796E635F6D61696E2E7372656352
S11300000C9498000C94B7000C94B7000C94B700AF
S11300100C94B7000C94B7000C94B7000C94521EC7
S11300200C94B7000C94B7000C94B7000C94B70070
S11300300C94B7000C94B7000C94B7000C94EA0528
S11300400C94B7000C94B7000C94F7180C94B700F8
S11300500C94B7000C94B7000C94B7000C94B70040
S11300600C94B7000C94B7000C947A060C94B70067
S11300700C94B7000C94B7000C9425190C94B70099
S11300800C94B7000C94B7000C94B700436F6E74D3
S1130090696B6920322E3720737461727465642E23
S11300A0204E6F64652069642025750A002573203D
S11300B025732C206368616E6E656C2063686563CC
S11300C06B207261746520256420487A2C2072614B
S11300D064696F206368616E6E656C2025640A0034
S11300E04D414320253032783A253032783A253054
S11300F032783A253032783A253032783A2530321F
S1130100783A253032783A253032780A0025640A64
S11301100025642E0052696D6520737461727465E4
S11301206420776974682061646472657373200065
S113013011241FBECFEFD0E1DEBFCDBF11E0A0E0A0
S1130140B1E0E0E7F9E400E00BBF02C007900D92D4
S1130150A83EB107D9F71BE0A8EEB1E001C01D929B
S1130160AA32B107E1F70E946E040C94B6240C94F1
S113017000000E94560308950F931F93CF93DF93BB
S1130180EC018091050290910602009721F08432DF
S1130190910559F526C083EF91E00E94340187E070
S11301A092E063EF71E00E947D010E94990289E26E
S11301B092E00E942A0181E080932E0283EF91E075
S11301C0BE0149E252E02CEB30E000E010E00E9476
S11301D0460184E290E0909306028093050281E058
S11301E009C084E00E94C507E9CF1092060210926C
S11301F0050283E0DF91CF911F910F910895CF9372
S1130200DF93EC01633821F488EE91E00E94AE01A3
S1130210888199810097C1F483EF91E09093F20172
S11302208093F10188EE91E060E870E046E851E0E7
S11302300E9495018FEF91E060E070E00E94BC00A5
S113024010920602109205021982188283E0DF914F
S1130250CF910895FC0110821182128213821482BC
S11302601582178216820895CF93DF93EC010E94C2
S11302702A018AE090E0998788878091880090918C
S113028089009B878A87DF91CF910895EF92FF922F
S11302900F931F93CF93DF93EB01FA01E090880053
S11302A0F0908900A581B0E068EE73E0A69FA001FC
S11302B0A79F500DB69F500D112466817781460F7C
S11302C0571FFC0160857185469FC001479F900DB3
S11302D0569F900D11246AE070E00E94EB206E0D91
S11302E07F1DCE0141E050E00E949C02DF91CF913E
S11302F01F910F91FF90EF900895CF93DF93EC013E
S1130300FC0161937193CF010E942A01CE010A96E8
S11303100E942A01CE0142960E942A01CE014A96E9
S11303200E942A01DF91CF910895EF92FF920F93DB
S11303301F93CF93DF93EC018B017A010E94D101CB
S1130340F886EF82C8016AE871E00E94F801DF9143
S1130350CF911F910F91FF90EF9008950E94DA01C1
S113036008950E9451080895FC01A781B0852D913C
S11303703C9111972115310511F0F9010995089562
S1130380DC011796ED91FC9118970280F381E02D22
S1130390309709F00995089581E392E00E940D02D7
S11303A00895FC017383628381E392E0BF010E949C
S11303B060020895BC0181E392E00E94270208953F
S11303C0CF93DF93EC0181E392E00E94110208C015
S11303D0828193818C179D0739F0CF010E948F028F
S11303E0E82FF92F3097A1F7CF01DF91CF9108952E
S11303F00F931F93CF93DF938B010E94E001EC01D5
S1130400009731F01D830C83C8010E94390A8E8342
S1130410DF91CF911F910F910895FC0111821082F9
S11304200895FC01808191810895FC01208131812E
S11304302115310511F407C09C01F90180819181D6
S11304400097D1F702C020E030E0C9010895CF93AE
S1130450DF93FC01A081B1811097D9F0C0E0D0E016
S113046016C0A617B70771F48D919C911197209728
S113047019F49183808302C09983888311961C9216
S11304801E9207C0ED0198818981A92FB82F10977A
S113049041F7DF91CF9108950F931F93CF93DF938B
S11304A08C01EB010E942702F801808191819983DC
S11304B08883D183C083DF91CF911F910F910895D9
S11304C0EF92FF920F931F93CF93DF93EC017B0185
S11304D00E942702F70111821082CE010E941502A8
S11304E0FC01009719F4E882F98202C0F182E082EB
S11304F0DF91CF911F910F91FF90EF900895DC0150
S1130500ED91FC91119720E030E005C02F5F3F4F43
S11305100190F081E02D3097C9F7C9010895009743
S113052021F0FC012081318102C020E030E0C901CA
S113053008950E94A70608950F931F93FC01CB0111
S11305404091330250913402338322831583048310
S113055071836083F0933402E093330241155105B3
S113056011F40E94C30680E090E01F910F9108955A
S113057080913302909134020097C1F010923402BA
S113058010923302DC0114966D917C9115971296AA
S1130590ED91FC9113970995E0913302F0913402A7
S11305A0309721F0808191810E94C3060895EF92D3
S11305B0FF92CF93DF932091350230E0C0E3D0E087
S11305C0C21BD30B265C3D4FB901AE010E946A21C8
S11305D0CE01DF91CF91FF90EF900895AF92BF923B
S11305E0CF92DF92EF92FF920F931F93CF93DF93FB
S11305F07C01C0903602D09037022091350230E061
S11306008601005D1F4F021B130B01381105E0F436
S1130610C0E3D0E0C21BD30B265C3D4FB901AE0151
S11306200E946A21CE0DDF1D2091380230913902DB
S11306308091EC029091ED02280F391FCE01B9018F
S1130640A6010E946A2102C000E010E0C801DF9107
S1130650CF911F910F91FF90EF90DF90CF90BF90BB
S1130660AF90089540913602509137029C0148178B
S1130670590798F08091EC029091ED02820F931F3C
S11306809093ED028093EC02421B530B509337027C
S11306904093360221E030E002C020E030E0C9019E
S11306A00895909337028093360208952091EC02C6
S11306B03091ED0226593D4FC9010895209135022C
S11306C030E0265C3D4FC901089521E030E080917F
S11306D038029091390242E08A36940711F420E0FE
S11306E030E0C90108950E946503009771F02AE67D
S11306F032E0609138027091390240913602509193
S11307003702C9010E946A210895A091EC02B091B8
S1130710ED021097B9F02091360230913702205D36
S11307203F4FA659BD4FEAE6F2E080E390E003C0F4
S11307304D914193019682179307D4F31092ED02E1
S11307401092EC0208958091380290913902089534
S11307508091360290913702089580E3909135029A
S1130760891B2091360230913702280F311DC901AF
S113077008951F93CF93DF93EC0110913502812FDD
S113078090E08C179D076CF00E94AD038C0F9D1FA9
S11307908138910530F41C1B1093350221E030E0C0
S11307A002C020E030E0C901DF91CF911F9108958C
S11307B0CF93DF93E4EDFAE0119211928BE0E430F1
S11307C0F807D1F7C0E0D0E0CE01880F991F845319
S11307D0954F6CE871E00E94D0072196C430D10592
S11307E099F7DF91CF9108951092ED021092EC02E7
S11307F0109237021092360280E3809335028AE623
S113080092E090933902809338020E94D8030895AD
S1130810CF92DF92EF92FF920F931F93DF93CF93C8
S113082000D0CDB7DEB78C0169837A830E94F403CC
S113083069817A81C62ED72E21E8C216D10418F018
S113084030E8C32ED12C8091380290913902B8013E
S1130850A6010E946A21D0923702C0923602C601D4
S11308600F900F90CF91DF911F910F91FF90EF9018
S1130870DF90CF900895282F392FD901E4EDFAE0C5
S113088080E301900D928150E1F7862F972FDC01D0
S1130890ECECFAE088E001900D928150E1F70895C4
S11308A0E4EDFAE0282F392FD90180E30D9001926D
S11308B08150E1F7ACECBAE0862F972FFC0188E079
S11308C001900D928150E1F7089580E063E046E0E5
S11308D00E94541980E00E94961908950E94AD0761
S11308E084E00E94B4070E9465040E94460681E0E9
S11308F00E94B4070E940A070E94BE052091040BBF
S11309008091EE029091EF02820F911D0E941C18BB
S11309100E9499020E94991484E491E060E070E0DE
S11309200E944E150E94C41782E00E94B4070E94E0
S1130930B70400D000D08CE890E0EDB7FEB7928306
S113094081838091EE029091EF02948383830E94CD
S11309507A210F900F900F900F9087E00E94BC07B0
S113096082E891E00E947D150E94AB14FDCFCF92E6
S1130970DF92EF92FF920F931F93DF93CF93CDB744
S1130980DEB728970FB6F894DEBF0FBECDBF8091B7
S1130990EE029091EF02009739F480910B0B89835A
S11309A080910A0B8A8302C089839A838E010F5F28
S11309B01F4FC8010E94E30700D085E191E0ADB765
S11309C0BEB712969C938E9311970E947A2100D001
S11309D0EDB7FEB7319681E191E0ADB7BEB712969F
S11309E09C938E9311978981828313820E947A212A
S11309F0EDB7FEB731968DE091E0ADB7BEB7129674
S1130A009C938E9311978A81828313820E947A2108
S1130A100F900F900F900F900E94ED1C90910C0B73
S1130A2080E020910D0B7C01E20EF11C88E0F801BE
S1130A3011928A95E9F7C8016CE07BE00E94D00727
S1130A408DB79EB742970FB6F8949EBF0FBE8DBF69
S1130A50EDB7FEB7319680EE90E0ADB7BEB7129613
S1130A609C938E9311978981828313828A818483D4
S1130A7015828B81868317828C81808711868D8174
S1130A80828713868E81848715868F818687178651
S1130A908885808B118A0E947A21EDB7FEB7729601
S1130AA00FB6F894FEBF0FBEEDBF8DEC9BEAB70105
S1130AB0A8010E94631C8AE190E00E94131CE0914B
S1130AC0B101F091B2010995E091C501F091C6011F
S1130AD00995E0919001F091910109950091C3016C
S1130AE01091C401C090AF01D090B001E090BD015D
S1130AF0F090BE01F7010995009741F0F7010995BF
S1130B00BC0180E890E00E94EB2002C060E870E045
S1130B108DB79EB70A970FB6F8949EBF0FBE8DBFD0
S1130B20EDB7FEB731968DEA90E0ADB7BEB7129639
S1130B309C938E93119713830283D582C482778307
S1130B4066838AE190E0918780870E947A21EDB7DD
S1130B50FEB73A960FB6F894FEBF0FBEEDBF2896C7
S1130B600FB6F894DEBF0FBECDBFCF91DF911F91BA
S1130B700F91FF90EF90DF90CF900895DF93CF9384
S1130B8000D000D00F92CDB7DEB78FB78983F89429
S1130B9080E090E0BE016E5F7F4F44E050E00E9431
S1130BA09D078A819B812EED8D3A920719F48C81E1
S1130BB09D8102C080E090E09093EF028093EE026A
S1130BC089818FBF0F900F900F900F900F90CF914E
S1130BD0DF9108951F920F920FB60F920BB60F92EA
S1130BE011242F933F934F935F936F937F938F932E
S1130BF09F93AF93BF93EF93FF938091F4029091EF
S1130C00F50201969093F5028093F4028091F60226
S1130C109091F70201969093F7028093F6028091E7
S1130C20F6029091F70280389105B9F41092F70218
S1130C301092F6028091F0029091F102A091F202DA
S1130C40B091F3020196A11DB11D8093F00290931F
S1130C50F102A093F202B093F3020E941D170097D1
S1130C6011F00E944E16FF91EF91BF91AF919F91A9
S1130C708F917F916F915F914F913F912F910F9041
S1130C800BBE0F900FBE0F901F901895F89487B766
S1130C908C7F87BF80B7886080BF8BE083BF12BE24
S1130CA088E081BF16BE80B790E08770907000978F
S1130CB0D1F787B7826087BF1092F5021092F402D1
S1130CC0789408952091F4023091F5028091F40211
S1130CD09091F50228173907A9F7C901089507C0AB
S1130CE022E330E0000021503040E1F70197009703
S1130CF0B9F708951F920F920FB60F920BB60F9289
S1130D0011242F933F934F935F936F937F938F930C
S1130D109F93AF93BF93EF93FF93EDE7F0E0808150
S1130D20817C80830E94B802FF91EF91BF91AF91C3
S1130D309F918F917F916F915F914F913F912F91EF
S1130D400F900BBE0F900FBE0F901F9018959FB77A
S1130D50F894EDE7F0E08081817C8083ECE7F0E0BB
S1130D6080818E63808310928B00EAE8F0E0108229
S1130D7010928C0010928900109288008081856006
S1130D8080839FBF08952FB7F89490938700809332
S1130D908600ECE7F0E080818E638083EDE7F0E08D
S1130DA08081806180832FBF089587E090E020E0F8
S1130DB030E0AAE0B0E060E170E045E650E0D49AAB
S1130DC0DC98FD013197F1F7D498DC9AFB01319757
S1130DD0F1F7CC992068FA013197F1F7009711F4F3
S1130DE0C9010895019736952795E9CF6827792792
S1130DF088E090E04CE850E09B013695279560FF31
S1130E0004C0B9016427752701C0B9010197A1F78E
S1130E10CB010895CF92DF92EF92FF920F931F932D
S1130E20DF93CF930F92CDB7DEB7D498DC988FB70A
S1130E308983F894D49ADC9889E993E00197F1F7CF
S1130E40D498DC9A80E890E00197F1F729B383EF16
S1130E5092E00197F1F724FD5AC0B8E0A3E3EEE66F
S1130E60F0E062E170E04AE050E025E730E0A0FF06
S1130E7009C0D49ADC98CA010197F1F7D498DC9A96
S1130E80C90108C0D49ADC98CF010197F1F7D4982E
S1130E90DC9ACB010197F1F7B15011F0A695E7CF99
S1130EA00E94D5066C010CE01BE078010E94D50677
S1130EB0D7018E937D01B6E0EB16BBE0FB06B1F7DC
S1130EC00E94D5067C0189818FBFE1E0CE16D10452
S1130ED001F580E090E061E070E00E94F606D80140
S1130EE06E918D0170E00E94F606BBE006301B0790
S1130EF0B1F78E159F0569F41092040B8AE1809373
S1130F00050B8CE48093060B21E030E00BC0898153
S1130F108FBF88E0E4E0FBE0DF011D928A95E9F7EA
S1130F2020E030E0C9010F90CF91DF911F910F9124
S1130F30FF90EF90DF90CF9008959C01CB01E19951
S1130F40FECFB9010E94AA2308959091F8028091DE
S1130F50F90289270E94A61908950E949F191092E8
S1130F60F8021092F90208959091F902982B909347
S1130F70F9020E94A507089580959091F90298239B
S1130F809093F9020E94A50708959091F80298277A
S1130F909093F8020E94A50708950E94C50708953A
S1130FA0FB0120813181FC0131832083089542E0DB
S1130FB050E00E945D2121E030E0009711F020E034
S1130FC030E0C9010895BC018CE09BE00E94D00789
S1130FD008950F931F93CF93DF930E94110AEC019E
S1130FE08AEF92E00E9411020BC0D8011296ED9193
S1130FF0FC911397309709F00995C8010E948F025C
S1131000082F192F0115110581F7209719F0CE012A
S11310100E94B401DF91CF911F910F9108950E9416
S113102022180E94F4030E946B080E940E0A82E0B8
S113103090E060E072E040E05EE12FEF31E00E947A
S113104087090895CF92DF92EF92FF920F931F9337
S1131050CF93DF936C01EB018A018AEF92E00E9447
S113106011020CC0D7011496ED91FC91159730979D
S113107011F0CE010995C7010E948F02E82EF92EC6
S1131080E114F10479F7C601BE01A8010E94C00170
S1131090DF91CF911F910F91FF90EF90DF90CF9050
S11310A00895CF93DF93EC010E94210A009769F021
S11310B00E947303E091C701F091C80182E298E0B5
S11310C0BE01099521E030E002C020E030E0C90112
S11310D0DF91CF9108958CEF92E00E940D02089564
S11310E09093FF028093FE0208958CEF92E00E9499
S11310F011020895EF92FF920F931F93CF93DF9302
S11311008C01EB017A018CEF92E00E94110215C070
S1131110DC0112962D913C9113972C173D0759F43D
S11311201696ED91FC911797309761F0B801AE01D6
S11311309701099507C00E948F02282F392FC901F2
S1131140009731F7DF91CF911F910F91FF90EF90AE
S113115008950895AF92BF92CF92DF92EF92FF92DB
S11311600F931F93DF93CF9300D0CDB7DEB75B010E
S11311700E9456038C01FC01E080F180FA82E9822E
S11311800E94A8039701220F331F220F331F2E5FE3
S11311903F4F8217930798F0CC24DD240DC0F8014B
S11311A06281738144815581C5010E947A08089443
S11311B0C11CD11C0C5F1F4FCE14DF0480F30F90B1
S11311C00F90CF91DF911F910F91FF90EF90DF90DF
S11311D0CF90BF90AF900895CF93DF93CDE1D3E04C
S11311E06091330370913403CE014EE159E020E065
S11311F030E00E94D1170E941F1860913303709150
S113120034030E94EB20BC01CE01409743E359E034
S113121020E030E00E94D117DF91CF9108950F9321
S1131220013051F480912D0390912E039093340357
S1131230809333030E94EC080F9108958091330347
S1131240909134032091310330913203880F991F18
S11312502817390708F4C9019093340380933303A2
S11312600E94EC080895EF92FF92CF93DF930E94BF
S1131270F4030E945603E82EE7017E01F92EE701EC
S1131280198218820E94750826C028813981F901C3
S1131290EE0FFF1FEE0FFF1FEC0FFD1FDC01129678
S11312A04D915C911397538342832F5F3F4FF90114
S11312B0EE0FFF1FEE0FFF1FEC0FFD1F14964D9155
S11312C05C91159751834083398328830E948F0250
S11312D0282F392FC901009721F0FC0120852223F2
S11312E0A1F688819981880F991F880F991F02960A
S11312F00E94510388819981009721F080E093E056
S11313000E94FF09DF91CF91FF90EF900895EF9233
S1131310FF920F931F93CF93DF93FC018B017A010C
S1131320E90180E093E0BF0144E951E00E94E4094F
S113133010932E0300932D03F0923003E0922F03B9
S1131340D0933203C09331038FE099E00E94700878
S1131350DF91CF911F910F91FF90EF900895DC01E1
S11313601B96ED91FC911C970280F381E02D309740
S113137009F009950895EF92FF920F931F93DF935D
S1131380CF9300D0CDB7DEB78C017E010894E11C69
S1131390F11CC7016CEC7AE00E94D007D8011B96BF
S11313A0ED91FC911C970190F081E02D309719F09C
S11313B0C801B70109950F900F90CF91DF911F914C
S11313C00F91FF90EF900895EF92FF920F931F9368
S11313D0CF93DF93EC018B017A0148E951E00E943D
S11313E09501FC86EB86C8016CE971E00E94F80166
S11313F0DF91CF911F910F91FF90EF900895CF93BC
S1131400DF93EC018CEC9AE06CE07BE00E94D00767
S1131410CE010E94B101DF91CF9108950E94CC01C9
S11314200895E091A001F091A1010995FC010097B4
S113143031F0828193819093D70A8093D60ACF01A9
S11314400895CF93DF93EC01E091A201F091A30101
S113145009952A813B813093D70A2093D60A21E04B
S113146030E0009711F420E030E0C901DF91CF9122
S11314700895E091A401F091A50109950895FC0156
S113148020E030E004C08181280F311D3296808134
S11314908823C9F7C9010895FC01818190E0308156
S11314A020E0822B932B02C0880F991F6A95E2F7E4
S11314B0892F9927FA01EA55FE4F208130E08223D3
S11314C0932328E030E0241B350B02C096958795C2
S11314D02A95E2F708956F927F928F929F92AF922E
S11314E0BF92CF92DF92EF92FF920F931F93CF930D
S11314F0DF936C017B015A0189012830310544F4E2
S1131500CB01BA01A9010E944C0AF601808341C0B3
S1131510390133E0759467943A95E1F74115510523
S113152021F04C01C0E0D0E016C0DB01FC01C0E0BA
S1131530D0E08D9181932196C615D705D4F3A801E7
S1131540477050704115510521F1C7018C0F9D1F43
S113155060E070E019C0C7018C0F9D1FB50148E021
S113156050E00E944C0AF40181934F012196C61564
S1131570D7058CF3A801477050704115510549F007
S1131580C7018C0F9D1FB5010E944C0ACC0DDD1DB7
S11315908883DF91CF911F910F91FF90EF90DF909F
S11315A0CF90BF90AF909F908F907F906F90089551
S11315B04F925F926F927F928F929F92AF92BF925F
S11315C0CF92DF92EF92FF920F931F93DF93CF930B
S11315D000D000D0CDB7DEB70E945603E82E092F05
S11315E082E090E00E943203009709F473C0EE2D6C
S11315F0F02F918180E02081820F911D0E94E001F3
S11316007C01009709F468C00E9456033C01D7018D
S113161016964C911697242F30E02770307081E095
S113162090E02115310511F480E090E0469546954F
S11316304695840F911D0E943203009709F44AC015
S1131640F70104811581CC24DD24F3E04F2E512CC5
S11316504C0E5D1E4E010894811C911C36C0D801AD
S11316601196AC901197BB24B601E3E0759567958C
S1131670EA95E1F7660D771DA60147705070883131
S113168078F0C40195010E946B0AF801808190E012
S1131690880F991F8456954FB4010E94D00711C03A
S11316A01C821B82C20195010E946B0AD801EC9135
S11316B0F0E0EE0FFF1FEC52F54F8B819C8191837C
S11316C08083CA0CDB1C0E5F1F4FF80180818823C6
S11316D031F602C0EE24FF24C7010F900F900F9043
S11316E00F90CF91DF911F910F91FF90EF90DF90BA
S11316F0CF90BF90AF909F908F907F906F905F90AE
S11317004F900895FC0150E080E190E0861B970B18
S1131710821B930B02C0440F551F8A95E2F7808108
S1131720852B80838181842B818308956F927F929E
S11317308F929F92AF92BF92CF92DF92EF92FF92DD
S11317400F931F93CF93DF938C015B016A0179019F
S11317502830310524F4C801FA01408156C039010A
S1131760A3E075946794AA95E1F76115710521F0DA
S11317704A01C0E0D0E021C0DA01F80180E090E045
S11317802D912193019686159705D4F3970127701F
S1131790307021153105D9F1F601E80FF91F4081A8
S11317A050E068E070E0621B730B02C055954795EA
S11317B06A95E2F7800F911F26C0F40141914F0111
S11317C0C8018C0F9D1FB50128E030E00E94820BF8
S11317D02196C615D7058CF3970127703070211513
S11317E03105A9F0F601EC0FFD1F408150E0C50161
S11317F00896821B930B02C0559547958A95E2F78C
S1131800C8018C0F9D1F60E070E00E94820BDF9185
S1131810CF911F910F91FF90EF90DF90CF90BF90E9
S1131820AF909F908F907F906F9008958F929F922A
S1131830AF92BF92CF92DF92EF92FF920F931F93DA
S1131840DF93CF9300D0CDB7DEB78C01DC011696C1
S11318504C911697842F90E08770907021E030E0CF
S1131860009711F420E030E04695469546957901BD
S1131870E40EF11CC70102960E94B903009709F413
S113188055C00E945E03FC01D80112968C911297F8
S1131890808313968C9181830E945E0342E0A42E80
S11318A0B12CA80EB91EC50160E070E0A7010E942A
S11318B07321F801E480F58000E010E04E01089403
S11318C0811C911C2CC0D7011196CC901197DD245A
S11318D0C80133E0959587953A95E1F78A0D9B1DEC
S11318E0B80167707070422F50E0283128F0440F1F
S11318F0551F4456554F0AC0FA01EE0FFF1FEC5214
S1131900F54F208131813A832983A40196010E94F5
S1131910960B0C0D1D1DE2E0F0E0EE0EFF1ED7014C
S11319202C91222381F621E030E002C020E030E057
S1131930C9010F900F90CF91DF911F910F91FF90EC
S1131940EF90DF90CF90BF90AF909F908F900895CD
S113195080913703882361F080914A03882341F4FE
S113196081E080934A03E091E101F091E20109955D
S1131970089580913703882379F080914A0388235E
S113198059F080913E03882339F410924A03E09180
S1131990E301F091E40109950895809149038823B6
S11319A031F480914803882311F40E94B90C0895FE
S11319B010923703009731F0E091E101F091E201D8
S11319C009950895E091E301F091E40109950895E2
S11319D080E190E008950F931F9381E08093370393
S11319E0609188007091890080911E0190911F017F
S11319F0680F791F88E393E041E050E020E23DE086
S1131A0000E010E00E949C0281E090E01F910F91A1
S1131A1008950F931F939B0140913703442369F06A
S1131A20FC0160817181620F731F41E050E020E28C
S1131A303DE000E010E00E949C021F910F91089588
S1131A40CF93DF93EC0180913E038823D1F0809102
S1131A5088009091890020913F0330914003821BBC
S1131A60930B97FD0EC010923E0381E493E06CE863
S1131A7071E00E94D00783E493E06CE871E00E9477
S1131A80D007809145039091460321E08333920768
S1131A9021F121E08234920719F0009709F04CC03B
S1131AA080914703882329F08091470381508093D4
S1131AB0470380914903882331F4809148038823A4
S1131AC011F40E94A80C60911C0170911D01CE01BB
S1131AD00E94090D83E391E029C080911E01909139
S1131AE01F010097E9F2E091DD01F091DE01099513
S1131AF00097B1F60E94CD0C80914803882369F0C9
S1131B00809148038F5F809348038091480383301A
S1131B1020F0109248030E94CD0C60911E01709138
S1131B201F01CE010E94090D82E491E090934603C7
S1131B308093450381E005C010924603109245034B
S1131B4083E0DF91CF9108950F931F93CF93DF9399
S1131B50E091C101F091C201099597FD7CC00E94FA
S1131B605603FC018081882309F456C01092470370
S1131B708EEC9AE06CE07BE00E94D707009749F472
S1131B808EEC9AE06CE871E00E94D707009709F4A4
S1131B9062C00E94B90C0DE413E0C0E0D0E0F8018B
S1131BA0808190E02091EE0A3091EF0A28173907DE
S1131BB071F4BE01660F771F6C0F7D1F655B7C4F50
S1131BC08CEC9AE00E94D707009709F044C0219654
S1131BD00D5F1F4FC830D10511F780E693E0DC019B
S1131BE0FC01339723E001900D922150E1F7039714
S1131BF0F3E08B349F0799F72091EE0A20934D036D
S1131C006CEC7AE00E94D00710924803E091C9017D
S1131C10F091CA0109951FC081818031E1F482E00D
S1131C20809347038EEC9AE06CE07BE00E94D70738
S1131C30009721F081E0809348030DC08EEC9AE078
S1131C406CE871E00E94D707009729F081E0809347
S1131C5048030E94A80CDF91CF911F910F91089522
S1131C600F931F93DF93CF9300D000D00F92CDB783
S1131C70DEB7009188001091890081E00E94B407CA
S1131C80009510958091880090918900800F911F94
S1131C9097FDF8CF81E00E94BC07E091DD01F0914F
S1131CA0DE010995009771F4E091DF01F091E00104
S1131CB00995009739F4E091DB01F091DC01099575
S1131CC00097C9F4209188003091890080918800A0
S1131CD0909189000797821B930B97FDF7CFE091B2
S1131CE0D901F091DA01CE01019663E070E0099523
S1131CF08330910561F080E090E00F900F900F9099
S1131D000F900F90CF91DF911F910F91089584E070
S1131D100E94CD0781E0F0CF2F923F924F925F92C5
S1131D206F927F928F929F92AF92BF92CF92DF92E7
S1131D30EF92FF920F931F93DF93CF93CDB7DEB74C
S1131D40E6970FB6F894DEBF0FBECDBF9CAB8BAB4E
S1131D507EAB6DAB80914703882309F093C18CEC73
S1131D609AE06CE07BE00E94D0078EEC9AE06CE88D
S1131D7071E00E94D7074C0181E090E09093EB0A58
S1131D808093EA0AE091BF01F091C00109957C01BA
S1131D9097FD6CC142E0442E512C480E591E83E33A
S1131DA0481651040CF062C10E945E03BC018E010E
S1131DB00F5F1F4FC801A7010E946A21F801EE0DB1
S1131DC0FF1D1082FE01EE0DFF1D80E182830E9443
S1131DD073030E942F185C01009709F44AC1809193
S1131DE03E03813081F48EEC9AE061E473E00E945A
S1131DF0D707009759F48EEC9AE063E473E00E94ED
S1131E00D707009719F4CC24DD2403C031E0C32E96
S1131E10D12C8091F00A9091F10A8230910531F52C
S1131E2081E080933E0381E493E06CE871E00E94DA
S1131E30D707009719F081E493E00AC081E493E0A6
S1131E406EEC7AE00E94D707009731F483E493E0C4
S1131E506EEC7AE00E94D00780918800909189000E
S1131E60805E934E9093400380933F030E94B90C8D
S1131E7083E693E00E941102082F192F24E8E22E32
S1131E8023E0F22E2BC0B8016E5F7F4F8EEC9AE0F8
S1131E900E94D7070097E9F02091880030918900CB
S1131EA0F80184819581821B930BB7010E94EB207A
S1131EB08A35910510F484E893E02A553040280FC0
S1131EC0391F8091880090918900821B930B97FDA4
S1131ED0F8CFC8010E948F02082F192F0115110590
S1131EE091F691E0E92EF12C8114910411F4EE2481
S1131EF0FF2481E08093490320908800309089007A
S1131F00C114D10409F04FC00E94841E00918800BE
S1131F10109189006090D7017090D8016E010894E7
S1131F20C11CD11C2AC08091880090918900821B19
S1131F30930B801B910B97FDF6CF009188001091B5
S1131F408900E114F10469F0C5010E94AB180E94F4
S1131F505E034C010E94AD03BC01C401F301099569
S1131F600AC00E94A80CC601B201F30109950E949F
S1131F70300E0097A9F40E94B90C809188009091CA
S1131F808900209120013091210182199309821B3B
S1131F90930B97FF08C02091220130912301C3CFF6
S1131FA08824839401C08824C5010E94AB18C5010C
S1131FB00E948918E114F10431F4882021F48091FD
S1131FC03E038823A1F0C090D701D090D8010E948D
S1131FD05E038C010E94AD03BC01C801F6010995A2
S1131FE0E114F10421F40E94300E009711F4CC2482
S1131FF002C0CC24C3940E94B90C882069F180915A
S11320003E03882349F583E693E00E94110210C041
S1132010B8016E5F7F4F8EEC9AE00E94D70700975D
S113202021F0F8011582148217C0C8010E948F02A2
S1132030082F192F0115110559F747C0C801029639
S11320406EEC7AE00E94D007F8011582148283E6D0
S113205093E0B8010E9460020E947A1E1092490324
S1132060E114F10449F4CC2039F409C045E050E00E
S11320700BC044E050E008C040E050E005C042E03E
S113208050E002C041E050E08BA99CA96DA97EA953
S113209021E030E00E94B110E6960FB6F894DEBF5E
S11320A00FBECDBFCF91DF911F910F91FF90EF90A5
S11320B0DF90CF90BF90AF909F908F907F906F9064
S11320C05F904F903F902F90089584E291E00E949A
S11320D0B4158C01009709F0B1CFBECF0F931F93B5
S11320E0CF93DF938C01EB014115510549F0FA01BF
S11320F0828193810E94AB18C801BE010E948C0E9C
S1132100DF91CF911F910F9108950F931F93109218
S11321104A031092480310924603109245036091BB
S113212088007091890080911E0190911F01680FB1
S1132130791F88E393E041E050E020E23DE000E0D5
S113214010E00E949C0281E08093370383E693E0D1
S11321500E940D0284E291E00E9494151F910F9158
S11321600895FC01CB01309719F0BA01A901099532
S113217008950F931F93DF93CF93CDB7DEB7E09706
S11321800FB6F894DEBF0FBECDBF0E94A8038C012A
S11321900E945603B801AE014F5F5F4F0E94ED1FCE
S11321A0009709F447C088A99801281B3109C9017F
S11321B00E9432030097F1F12E81222331F18A85A6
S11321C09B853BEA8D3C930721F03FEF8F3F9307BC
S11321D089F5223041F088E090E007C00197229110
S11321E02F3F41F00BC082E090E0FE01E80FF91FA1
S11321F03C96F4CF181619068CF307C08EEC9AE0BF
S1132200BE01645F7F4F0E94D0078CEC9AE0BE0150
S11322106A5E7F4F0E94D0078B818093F80A1092E8
S1132220F90A89858093EE0A1092EF0A88A9081B9F
S1132230110902C00FEF1FEFC801E0960FB6F89422
S1132240DEBF0FBECDBFCF91DF911F910F910895D7
S1132250EF92FF920F931F93DF93CF93CDB7DEB727
S1132260E0970FB6F894DEBF0FBECDBFFE013196E6
S113227080E3DF011D928A95E9F780918103882329
S113228039F481E0809381030E941F1880938203B4
S113229081E089831A828091F80A8B838EEC9AE01C
S11322A06CE871E00E94D707009711F01C8203C00C
S11322B08091EA0A8C831D821F828091E80A9091A2
S11322C0E90A009711F089870BC0809182038987FE
S11322D0982F9F5F909382038093E80A1092E90AF3
S11322E002E008878DEC9BEA9B878A878EEC9AE054
S11322F06CE871E00E94D707009729F00E838FEFF6
S11323008C878D8707C0CE010C966EEC7AE00E9414
S1132310D0070E838DEC9BEA9D8B8C8BCE01469669
S11323206CE07BE00E94D0070E9456039FA78EA713
S11323300E94A80388AB7E010894E11CF11CC7012C
S11323400E94E41E8C010E94B903009741F00E9490
S11323505E03BC01C701A8010E94091F02C00FEF60
S11323601FEFC801E0960FB6F894DEBF0FBECDBFD5
S1132370CF91DF911F910F91FF90EF900895E0911D
S1132380BD01F091BE0109959C01009711F420E173
S113239030E0C9010895E0919201F091930109950B
S11323A00895E091B901F091BA0109950895E09179
S11323B0BB01F091BC0109950895E091BD01F09134
S11323C0BE01309719F009959C0102C020E030E06D
S11323D0C9010895EF92FF92CF93DF93E82EE701AE
S11323E07E01F92EE701209779F0898D9A8D0E945C
S11323F01102AC01009741F0E091B501F091B601F2
S11324008DE293E1B7010995DF91CF91FF90EF90B1
S11324100895AF92BF92CF92DF92EF92FF920F9303
S11324201F93CF93DF936C017B0180918303909181
S11324308403009731F481E090E0909384038093C7
S1132440830380918303909184039C012F5F3F4F0A
S113245030938403209383039093E90A8093E80ADA
S113246085E893E00E941102292FA82EE5010EC0F1
S1132470CE0102966EEC7AE00E94D707009711F520
S1132480CE010E948F02292FA82FED015E01B22EEA
S1132490E501209769F783C0CE0102966EEC7AE0DD
S11324A00E94D0071C8A1D8A1E8ACE0147969A8FE5
S11324B0898F188E1F8A0E940D0285E893E0BE0161
S11324C00E94600284E391E00E94B4158C0100979D
S11324D009F44CC08CE391E00E94B415D801159620
S11324E09C938E9314970097E1F10E942F18F801A2
S11324F0938382830480F581E02D009769F18091B4
S1132500E60A9091E70A009709F483E08483D18274
S1132510C082F382E2822091F00A3091F10A898D1F
S11325209A8D2130310521F4B8010E944C0203C078
S1132530B8010E946002898D9A8D0E941102801751
S11325409107D1F5CE01049660E070E04AEE51E1C6
S11325509E010E94D11730C08CE391E0BF010E941C
S1132560DA1584E391E0B8010E94DA15898D9A8D19
S11325700E947F02009751F485E893E0BE010E9417
S113258027028CE291E0BE010E94DA15C601B70170
S113259044E050E021E030E00E94B1100DC08CE234
S11325A091E00E94B415A82EE5015E01B92EE50163
S11325B0209709F071CFEACFDF91CF911F910F914E
S11325C0FF90EF90DF90CF90BF90AF9008950F935E
S11325D01F93CF93DF93EC018B0161157105C1F15A
S11325E0898D9A8D0E942702F801828193810E942D
S11325F08918F801648175818CE391E00E94DA15F1
S113260084E391E0B8010E94DA15898D9A8D0E94C5
S113261011028E010C5F1F4F009769F01C8A1D8AFE
S11326201E8A0E94BF11BC01C8014AEE51E19E01FD
S11326300E94D1170DC0C8010E94041885E893E0D8
S1132640BE010E9427028CE291E0BE010E94DA15CD
S1132650DF91CF911F910F9108954F925F926F92E6
S11326607F928F929F92AF92BF92CF92DF92EF921E
S1132670FF920F931F93CF93DF938B01E82EE70113
S11326807E01F92EE701209709F481C061307105BC
S113269091F06230710524F46115710541F012C0A6
S11326A06230710521F06330710561F408C08C89D2
S11326B08F5F8C8B07C08D898F5F8D8B03C08E8954
S11326C08F5F8E8B898D9A8D0E94110210C0F70145
S11326D0828193816AE00E94E9182091E80A30918E
S11326E0E90A8217930749F0C7010E948F02E82E76
S11326F0F92EE114F10459F74AC0F701C480D580DA
S1132700C114D10409F443C0F601A080B1808280D1
S113271093805C88C80101978230910568F50E9416
S1132720BF113C014C880E941F183C89F60124818A
S1132730321710F5242D30E02F5F3F4F2430310540
S113274014F023E030E0629EB001639E700D729E2F
S1132750700D11240E94EB20BC01660D771DCE0183
S113276004964AEE51E19E010E94D117F70182813D
S113277093810E947E180BC0CE01B7010E94E7121C
S1132780C501B401A801252D30E00E94B110DF91EC
S1132790CF911F910F91FF90EF90DF90CF90BF905A
S11327A0AF909F908F907F906F905F904F9008951F
S11327B084E391E00E9494158CE391E00E949415C7
S11327C08CE291E00E94941508951F93CF93DF93B8
S11327D0EC01162F8E8180FF1DC0EA81FB813097AA
S11327E0C9F0D0932A04C093290482E08E83CE01D9
S11327F004960995992787FD909502978230910553
S113280010F0133829F4CE01BE010E940E1402C048
S113281081E08E83DF91CF911F910895CF92DF9253
S1132820EF92FF920F931F93CF93DF93EC017B0101
S1132830C0902904D0902A04009127041091280400
S1132840F80103C00190F081E02DEC17FD0719F0A9
S11328503097C1F746C0209709F443C08E8188237E
S113286009F11E820BC0C017D10729F0C80167E81F
S1132870AE010E94E513F8010081118101151105D3
S113288091F7EA81FB81309769F0CE15DF0551F0AD
S1132890D0932A04C0932904CE01049663E840E04F
S11328A050E00995E0912704F0912804CE17DF0742
S11328B091F48881998190932804809327040DC012
S11328C0808191818C179D0729F488819981918356
S11328D0808303C0FC01309799F7D0922A04C092F8
S11328E02904DF91CF911F910F91FF90EF90DF901A
S11328F0CF9008951F93CF93DF9310922B04C09130
S11329002704D091280411E00EC08F81882341F060
S11329101E831F82CE0162E840E050E00E94E5136E
S11329200990D881C02D209781F7DF91CF911F9115
S113293008958AE880935E0410922D0410922C046A
S113294010920E0B109228041092270410922A045D
S113295010922904089580912B04882311F00E9479
S11329607A1470912C04772309F455C020912D0416
S113297030E0F901EE0FFF1FEE0FFF1FE20FF31F10
S1132980E25DFB4F608160935D044181528150930D
S11329905C0440935B048381948190935A048093F4
S11329A059042F5F3F4F2770307020932D047150CE
S11329B070932C04009741F580912704909128048A
S11329C018C080912B04882311F00E947A1440913E
S11329D05B0450915C048091570490915804609179
S11329E05D040E94E513E0915704F091580480813E
S11329F09181909358048093570480915704909147
S1132A0058040097F1F607C0613819F421E0FC017D
S1132A1026830E94E51380912B0420912C0430E03E
S1132A20280F311DC901089570912C04783001F1EB
S1132A3020912D04270F27702093560430E0F901CC
S1132A40EE0FFF1FEE0FFF1FE20FF31FE25DFB4FC0
S1132A5060835283418394838383872F8F5F809322
S1132A602C0490910E0B981730F480930E0B03C036
S1132A7021E030E002C020E030E0C9010895CF93A6
S1132A80DF93C0912904D0912A040E94E513D093C6
S1132A902A04C0932904DF91CF910895FC01AB016E
S1132AA090912704809128049C01A32FB22F03C086
S1132AB00D90BC91A02DAE17BF0791F01097C1F7F0
S1132AC0309771F090838183F0932804E093270476
S1132AD081E0868315821482CF0161E80E943F154C
S1132AE00895FC01009741F086818150823020F4E2
S1132AF081E0878380932B040895EF92FF92CF9314
S1132B00DF93E82EE7017E01F92EE70104C060E0BF
S1132B1070E00E944E15899199910097C1F7DF9159
S1132B20CF91FF90EF900895CF93DF93EC014A810A
S1132B305B818C819D8160E070E00E9473214A81F9
S1132B405B8188819981489F9001499F300D589FEE
S1132B50300D11248E819F8160E070E0A9010E94F4
S1132B607321DF91CF910895FC018281938120E04C
S1132B7030E019C0A481B581A20FB31F4C91442346
S1132B8081F481E08C9340815181249FC001259F71
S1132B90900D349F900D112426813781280F391F01
S1132BA007C02F5F3F4F2817390720F320E030E09C
S1132BB0C9010895FC01268137814281538180E057
S1132BC090E018C02617370781F4A481B581A80FB7
S1132BD0B91F2C91121614F421502C930480F58102
S1132BE0E02DE80FF91F80810895A081B1812A0F9B
S1132BF03B1F01968417950728F38FEF0895FC0176
S1132C00CB01268137816217730790F0A081B181CF
S1132C1062817381A69FA001A79F500DB69F500D9E
S1132C201124420F531F21E030E08417950710F060
S1132C3020E030E0C901089580915F049091600420
S1132C40009729F4109262041092610408950E947E
S1132C506206E0915F04F091600422813381408137
S1132C605181240F351F281B390B0CC0428153811D
S1132C7060817181460F571F481B590B4217530738
S1132C8008F49A010480F581E02D309779F7280F34
S1132C90391F3093620420936104089584E491E021
S1132CA00E9471150895CF92DF92EF92FF920F93D5
S1132CB01F93CF93DF937C01FC0180819181009766
S1132CC029F08935910509F06EC00BC0109260049B
S1132CD010925F0489E590E0F7019183808381E09D
S1132CE066C0673849F5CA01E0915F04F091600459
S1132CF003C00480F581E02D309741F326813781AC
S1132D0028173907B1F3E0935F04F09360040FC010
S1132D1016962D913C9117972817390739F4149674
S1132D202D913C91159735832483DF01FD01A48106
S1132D30B581109769F7CECF623861F6C0915F0410
S1132D40D091600400E010E02BC0CE010E94C920A5
S1132D500097F1F08E819F8168E8AE010E941415FE
S1132D600097A1F41F821E828C819D81011511059B
S1132D7021F0F8019583848304C0909360048093C8
S1132D805F041D821C820E941C16D8CF0E944E161E
S1132D908E019C818D81C92EE6016E01D82EE6013B
S1132DA0209799F697CFF7011182108283E0DF9183
S1132DB0CF911F910F91FF90EF90DF90CF900895E6
S1132DC0CF93DF93EC010E944E168E819F81009772
S1132DD0A1F0E0915F04F09160040DC0EC17FD07D1
S1132DE039F48091290490912A049783868315C02D
S1132DF00480F581E02D309789F780912904909122
S1132E002A049F838E8380915F04909160049D8344
S1132E108C83D0936004C0935F040E941C16DF91DE
S1132E20CF910895CF93DF93EC010E94BD20CE0192
S1132E300E94E016DF91CF91089521E030E0809167
S1132E405F0490916004009711F420E030E0C90120
S1132E500895CF93DF93EC01E0915F04F091600457
S1132E608E179F0741F48C819D8190936004809319
S1132E705F0414C0FC01309731F0848195818C1774
S1132E809D07C1F707C01D821C821F821E82DF912D
S1132E90CF9108958C819D81958384830E941C1613
S1132EA0F2CFCF92DF92EF92FF920F931F93CF93C3
S1132EB0DF938C017A01FC0180819181009729F0D4
S1132EC08A34910509F051C01EC084E694E00E9442
S1132ED01102C82EE6017E01F92EE70109C06C81BA
S1132EE07D81CE0102960E9412170990D881C02DCF
S1132EF02097A9F781E0809363048AE490E0F801C5
S1132F009183808337C06838A9F584E694E00E94F1
S1132F101102C82EE6016E01D92EE60123C0CE01AE
S1132F200296E816F906D9F484E694E0BE010E94FC
S1132F302702E0902904F0902A048A859B859093C7
S1132F402A0480932904EC85FD85309719F08E8539
S1132F509F850995F0922A04E0922904CECF099026
S1132F60D881C02D2097D9F6C8CFF80111821082DC
S1132F7083E001C081E0DF91CF911F910F91FF9019
S1132F80EF90DF90CF9008951092630484E694E06C
S1132F900E940D028CE491E060E070E00E944E1506
S1132FA008950F931F93CF93DF93EC0100912904AD
S1132FB010912A041B870A875D874C873F872E87D9
S1132FC080916304882379F08CE491E090932A043F
S1132FD080932904CE0102960E94121710932A04AA
S1132FE00093290402C07D836C8384E694E0BE01CF
S1132FF00E94270284E694E0BE010E946002DF91F1
S1133000CF911F910F910895CF93DF93EC0180919D
S11330106304882329F0CE0102960E94291704C074
S11330201F821E821986188684E694E0BE010E94DF
S11330302702DF91CF9108950E94522108950E94A2
S11330404D21089584E691E00E94941584E591E071
S11330500E9494158CE591E00E9494150895EF92D6
S1133060FF920F931F93CF93DF930E946503009702
S1133070C9F08CE591E00E94B415E82EE7017E01C9
S1133080F92EE701209791F10E94A8039983888380
S11330900E94A3039B838A83C70104960E94D702DC
S11330A08CAB24C084E591E00E94B415EC017E0150
S11330B0F92EE7012097D1F084E691E00E94B4153F
S11330C08C0199838883009779F002960E94EE021E
S11330D0F80191838083B8016E547F4FC8018E57E5
S11330E09F4F0E943B0402C0C0E0D0E0CE01DF91BC
S11330F0CF911F910F91FF90EF900895FC01808173
S11331009181BC016E547F4F8E579F4F0E943B04A8
S11331100895CF93DF93EC0184E591E0BE010E9412
S1133120FF15009749F06881798184E691E00E9457
S1133130DA1584E591E009C08CE591E0BE010E94B6
S1133140FF15009729F08CE591E0BE010E94DA1585
S1133150DF91CF910895EF92FF92CF93DF93EC012B
S113316084E591E0BE010E94FF15009791F009905B
S1133170D881C02D68817981CE0102960E9408040D
S1133180BE016E547F4FCE018E579F4F0E94500454
S11331901BC08CE591E0BE010E94FF150097A1F0D1
S11331A00E94F403688179818A819B810E940804CA
S11331B08CA990E00E94B9030E945E034CA9249656
S11331C0BE0150E00E946A21DF91CF91FF90EF9001
S11331D00895DC01ED91FC91119770E06F5B7F4FD6
S11331E0660F771FE60FF71F8081918108951F9264
S11331F00F920FB60F920BB60F9211242F933F9399
S11332004F935F936F937F938F939F93AF93BF93EA
S1133210EF93FF938CB1E091110BF091120B309767
S113322009F00995FF91EF91BF91AF919F918F9113
S11332307F916F915F914F913F912F910F900BBEB2
S11332400F900FBE0F901F9018951F920F920FB6FC
S11332500F920BB60F9211242F933F934F935F93CA
S11332606F937F938F939F93AF93BF93EF93FF934A
S113327080919C00E0910F0BF091100B309709F0B6
S11332800995FF91EF91BF91AF919F918F917F919C
S11332906F915F914F913F912F910F900BBE0F90C3
S11332A00FBE0F901F901895882361F41092900020
S11332B069B988E98AB9409395001092120B10926B
S11332C0110B0895813069F410929800609399006D
S11332D088E980939A0040939D001092100B1092FD
S11332E00F0B0895882321F45D9BFECF6CB90895DC
S11332F0813031F480919B0085FFFCCF60939C006A
S113330008951F93182F8A3031F48091C20A6DE01A
S11333100E94721902C08D3029F08091C20A612F77
S11333200E94721980E090E01F9108958093C20A70
S11333308CE691E09093270B8093260B08958AB333
S113334087608ABB8BB387608BBB08952BB3287FC0
S113335082FF02C040E001C044E080FF02C030E0D0
S113336001C032E051E081FD50E0252B242B232BBA
S11333702BBB0895C0988FB9779BFECFC09A089550
S1133380C0981FB8779BFECF8FB1C09A90E0089584
S1133390CF93DF9389B7806489BF83E090E00E9474
S11333A0BA19C0918800D09189000E94C01986FD85
S11333B00AC08091880090918900885490408C1BA9
S11333C09D0B97FDF2CF81E08093C40ADF91CF91EA
S11333D00895C09880648FB9779BFECF8FB11FB8D2
S11333E0779BFECF2FB1922F80E01FB8779BFECF43
S11333F02FB1C09A30E0282B392BC9010895C09809
S11334008FB9779BFECF7FB9779BFECF6FB9779B40
S1133410FECF1FB8779BFECFC09A08951F93182F35
S113342085E190E00E94E919BC01607E812F90E063
S11334308F719070682B792B85E190E00E94FF19C1
S11334401F91089521E030E0849902C020E030E02B
S1133450C901089521E030E00E9902C020E030E077
S1133460C9010895C0988FE78FB9779BFECF8FB1BC
S11334701FB8779BFECF8FB181E090E00E946F066A
S1133480C09AC09888E08FB9779BFECFC09AC09845
S113349088E08FB9779BFECFC09A0895CF93DF93CE
S11334A01092C40AC0918800D09189000E94C0196A
S11334B083FF0AC08091880090918900805D9240CA
S11334C08C1B9D0B97FDF2CF86E090E00E94BA1909
S11334D089B78F7B89BF0E9902C00E94321ADF918F
S11334E0CF9108958091C30A813081F48091C50AF7
S11334F0882321F00E94C8191092C50A8091C60A37
S1133500882321F00E944E1A1092C60A8091C30AA1
S113351081508093C30A08950F931F93CF93DF9331
S1133520EC018B018091C30A8F5F8093C30A89E009
S113353090E00E94BA19802F8E5FC0989EE39FB9D5
S1133540779BFECF8FB9779BFECFC09AC0988EE34E
S11335508FB9779BFECF20E008C08C0F9D1FFC0124
S113356080818FB9779BFECF2F5F822F90E08017E9
S1133570910798F3C09A0E94721A80E090E0DF915C
S1133580CF911F910F9108958091C40A882379F4F3
S11335908091C30A882321F081E08093C50A07C083
S11335A081E08093C30A0E94C8190E94721A81E0C4
S11335B090E008951F938091C40A8823B1F080910C
S11335C0C30A882321F081E08093C60A0EC011E06B
S11335D01093C30A0E94C01983FF03C01093C60A44
S11335E002C00E944E1A0E94721A81E090E01F915C
S11335F00895EF92FF920F931F93CF93DF938091DF
S1133600C30A8823D1F581E08093C30A8091C40A58
S1133610882329F40E94C41A01E010E002C000E0EB
S113362010E08091C40A882341F40E94721A0115A3
S1133630110519F10E94DA1A20C0C0918800D091B6
S113364089000E94C01981FD0AC080918800909170
S11336508900885490408C1B9D0B97FDF2CFC1E0EC
S1133660D0E0869902C0C0E0D0E00115110511F048
S11336700E94DA1A0E94721A02C0C1E0D0E0CE01A0
S1133680DF91CF911F910F91FF90EF900895C09813
S11336902FE72FB9779BFECF2FB140E009C01FB8A9
S11336A0779BFECF2FB1FC01E40FF11D20834F5F08
S11336B0242F30E02617370794F381E090E00E942E
S11336C06F06C09A0895DF92EF92FF920F931F93B3
S11336D0DF93CF9300D0CDB7DEB78C017B010E9B77
S11336E062C01092C70A8091C30A8F5F8093C30A95
S11336F08091140B9091150B01969093150B809368
S1133700140BC0988FE78FB9779BFECF8FB11FB88A
S1133710779BFECFDFB081E090E00E946F06C09AF5
S1133720D7FC0AC08D2D833038F06D2D70E06250C7
S11337307040E616F70628F40E94321A0E94721AA4
S113374032C0C8010E94471BCE01019662E070E0BE
S11337500E94471B2A8127FF12C089818093130B83
S11337602F7720931E0B992787FD90959093DD0A60
S11337708093DC0A2093DA0A1092DB0A02C082E00A
S1133780D82E0E9B09C0B79903C00E94321A04C0F8
S11337908AE791E00E9471150E94721A2D2D30E083
S11337A02250304002C020E030E0C9010F900F9059
S11337B0CF91DF911F910F91FF90EF90DF900895CB
S11337C0CF93DF93EC0188819981009729F022E05F
S11337D08D37920701F505C08DE792E099838883C0
S11337E01EC06238E1F40E94F4038091C80A9091EB
S11337F0C90A9093DF0A8093DE0A0E94560360E8A8
S113380070E00E94631B0E945103E091B701F091A4
S1133810B8010995E1CF1982188283E001C081E0E3
S1133820DF91CF9108950F931F93CF93DF9320914E
S1133830C30A2F5F2093C30A9093CB0A8093CA0ACA
S1133840EC01CC0FDD1FCC0FDD1FC80FD91FC25DEB
S1133850DE4B00918800109189000E94C01986FDFA
S11338600AC08091880090918900805D9240801BFD
S1133870910B97FDF2CF00918800109189000E946E
S1133880C01983FF0AC08091880090918900805DEF
S11338909240801B910B97FDF2CF88E190E0BE012E
S11338A00E94FF198091C40A882321F083E090E0EC
S11338B00E94BA190E94721A81E090E0DF91CF91C0
S11338C01F910F910895CF92DF92EF92FF920F9381
S11338D01F93DF93CF93CDB7DEB72C970FB6F89431
S11338E0DEBF0FBECDBF6C018A018091C30A8F5F1A
S11338F08093C30AE0908800F09089006B877C87EE
S11339000E94C0196B857C8586FD0AC020918800C1
S113391030918900205D32402E193F0937FDEECFEA
S1133920C982DA82C09888EE8FB9779BFECF80E88F
S11339308FB9779BFECFFE013196CE010396DF014E
S11339402D912FB9779BFECFA817B907C9F7C09A55
S113395069837A83C0982AEE2FB9779BFECF20E83B
S11339602FB9779BFECF21912FB9779BFECFE81714
S1133970F907C9F7C09A01151105F1F0D801CE0174
S11339800396FE013B962D912293E817F907D9F788
S1133990C09820EE2FB9779BFECF20E82FB9779BF4
S11339A0FECFFE013396089621912FB9779BFECF67
S11339B0E817F907C9F7C09A0E94721A2C960FB635
S11339C0F894DEBF0FBECDBFCF91DF911F910F9151
S11339D0FF90EF90DF90CF9008951F931FB7F89456
S11339E00E94431E89B78F7B89BF8AB780638ABFD1
S11339F080E488BF1FBFDD9A8AEF90E00E946F06C3
S1133A00DE988FE790E00E946F06DE9A8DE790E0E3
S1133A100E946F0681E090E00E94BA1981E190E073
S1133A200E94E919BC016061786081E190E00E9424
S1133A30FF1982E190E060E075E00E94FF1987E1E0
S1133A4090E00E94E919BC01706287E190E00E9455
S1133A50FF198CE190E06FE770E00E94FF1989E1A3
S1133A6090E00E94E919BC017D7F89E190E00E9409
S1133A70FF198FEF9FEF60E070E040E050E00E949C
S1133A80631C8AE190E00E94131C0E94321A8AE7A8
S1133A9091E060E070E00E944E1581E090E01F919B
S1133AA0089580E488BF8AE791E00E9471158091AF
S1133AB0180B9091190B9093C90A8093C80A8091AE
S1133AC0C70A8F5F8093C70A8091160B9091170BDA
S1133AD001969093170B8093160B81E090E0089564
S1133AE0EF92FF92CF93DF938091C30A8F5F80930D
S1133AF0C30A85E190E00E94E919EC010E94721A60
S1133B00CF71D070CE01DF91CF91FF90EF900895E7
S1133B10CF92DF92EF92FF920F931F93DF93CF9395
S1133B2000D0CDB7DEB77C018091C30A8F5F80934C
S1133B30C30A8091E00A9091E10A009749F00E943B
S1133B40701D8C018091E00A81500E940E1A02C0FF
S1133B5000E010E083E090E00E94BA19C090880071
S1133B60D09089000E94C01981FD0AC0809188000C
S1133B7090918900805D92408C199D0997FDF2CF48
S1133B8085E090E00E94BA1984EF91E0849B54C0D0
S1133B908091180B9091190B9A8389838091F00A74
S1133BA09091F10A84309105E9F4C0988E2D8150EA
S1133BB080688FB9779BFECF0894E108F108F694EA
S1133BC0E79480ECE822EFB8779BFECFFE013196B4
S1133BD0CE01039621912FB9779BFECFE817F90701
S1133BE0C9F7C09A0E94C01983FF32C0E0908800D0
S1133BF0F09089000E94C01983FF0AC08091880058
S1133C0090918900805D92408E199F0997FDF2CFB3
S1133C108091C40A882311F40E944E1A8091E00A0C
S1133C209091E10A009719F0802F0E940E1A0E94C9
S1133C30721A20E030E010C0019709F0A7CF8091FC
S1133C40E00A9091E10A009719F0802F0E940E1A61
S1133C500E94721A22E030E0C9010F900F90CF91B8
S1133C60DF911F910F91FF90EF90DF90CF90089517
S1133C70CF93DF93EB010E948C1ACE010E94881D22
S1133C80DF91CF91089580B5846080BD0E94E020CB
S1133C90D69AD59ABF988E988C981698DE9AC09A20
S1133CA0C09A08951F920F920FB60F920BB60F92FF
S1133CB011242F933F934F935F936F937F938F932D
S1133CC09F93AF93BF93EF93FF930E94511DFF9176
S1133CD0EF91BF91AF919F918F917F916F915F9180
S1133CE04F913F912F910F900BBE0F900FBE0F90ED
S1133CF01F9018952FE088E190E00FB6F894A895EE
S1133D0081BD0FBE21BD089588E10FB6F89481BD31
S1133D1011BC0FBE0895EF92FF92CF93DF93FC0185
S1133D20DB0185E0EB0119928A95E9F7858190E042
S1133D3083709070009711F082E08C93878190E0FB
S1133D4083709070009721F082E012968C93129702
S1133D50858190E083709070009799F0878190E05E
S1133D6083709070009769F02389348981859285E6
S1133D702817390731F481E0848312961C92129734
S1133D8001C01482858183708250823030F4C82F40
S1133D90D0E0CB51DE4F888101C080E011968C9336
S1133DA01197E781E370E250E23028F4F0E0EB5140
S1133DB0FE4F808101C080E013968C931397DF91AE
S1133DC0CF91FF90EF900895DF93CF9300D000D070
S1133DD00F92CDB7DEB7BE016F5F7F4F0E948B1E7F
S1133DE089812A8130E0280F311D2D5F3F4F8B815F
S1133DF0280F311D8C81280F311D8D81280F311D15
S1133E00C9010F900F900F900F900F90CF91DF91F9
S1133E100895AF92BF92CF92DF92EF92FF920F93E9
S1133E201F93DF93CF9300D000D00F92CDB7DEB7AE
S1133E308C017B016A01BE016F5F7F4F0E948B1E64
S1133E40A9802A81622F70E0BB803C81432F50E01F
S1133E50CB018A0D911D03968B0D911D840F951F27
S1133E60ED818E0F911DC816D9060CF4A3C0D8019C
S1133E701196EC911197F0E0E170F07083E0EE0F91
S1133E80FF1F8A95E1F712968C91129790E081704A
S1133E909070F4E0880F991FFA95E1F78E2B9C91AE
S1133EA09770892B1396AC91B0E0A170B070E5E0E7
S1133EB0AA0FBB1FEA95E1F78A2BF801A481B0E0B1
S1133EC0A170B07096E0AA0FBB1F9A95E1F78A2BF8
S1133ED0D7018C93E581F0E0E370F070EE0FFF1FE3
S1133EE0EE0FFF1FD80116968C91169790E0837001
S1133EF09070F4E0880F991FFA95E1F78E2B1796CE
S1133F009C9117979295990F990F907C982BF70194
S1133F10918318968C9118978283FA2DF23069F464
S1133F2019968C91D70113968C931397F801828577
S1133F3014968C93149785E001C083E0E22FF0E09F
S1133F403B96E00FF11F982F08C0D701A90FB11DB0
S1133F50C290CC929F5F6150704061157105A9F7C2
S1133F60280FFB2DF23089F4F701E20FF11DD8017F
S1133F7053968C91539780832F5FF701E20FF11DC5
S1133F8054968C91549780832F5FE32FF0E07596BD
S1133F90E00FF11F822F08C0D701A80FB11D929125
S1133FA09C938F5F4150504041155105A9F7230F51
S1133FB030E002C020E030E0C9010F900F900F9074
S1133FC00F900F90CF91DF911F910F91FF90EF9081
S1133FD0DF90CF90BF90AF900895AF92BF92CF92F1
S1133FE0DF92EF92FF920F931F93CF93DF937C01A5
S1133FF06B01EA01633071050CF4B1C0F7018081F3
S1134000A82EA294A694A69443E0A422F1E0AF22A1
S1134010F7019181292F269526952370B92EB29404
S1134020B694B69433E0B322382F37703883382FE0
S113403036953695369531703983382F32953170EF
S11340403A838295869581708B83AC822D83892FE8
S1134050829583708E83BF828281888787010D5FFA
S11340601F4F222361F1F801918180E0F701338130
S1134070830F911D9A87898787010B5F1F4F223019
S113408081F4CE010B966CE871E00E94D007F80130
S113409081818B87F70185818C878701095F1F4F99
S11340A016C02330A1F4F7013D96DE011B968291E0
S11340B08D93E017F107D9F7085F1F4F08C0CE01B1
S11340C00B966CE871E00E94D0071A861986BB2013
S11340D099F1AA2059F4F801918180E02081820F9E
S11340E0911D9C8B8B8B0E5F1F4F04C089859A8515
S11340F09C8B8B8BFB2DF23071F4CE0145966CE8D2
S113410071E00E94D007F80181818D8B80818E8BB4
S11341100E5F1F4F19C0FB2DF330B1F4085F1F4F22
S1134120D801FE01759680E090E02E9121930196CE
S113413088309105D1F708C0CE0145966CE871E04E
S11341400E94D0071C8A1B8A98012E193F098C2DC6
S1134150821B8FA71EA70DA7C216D30614F420E056
S113416030E0C901DF91CF911F910F91FF90EF9043
S1134170DF90CF90BF90AF900895CF93DF93EC0181
S11341807B836A830E94620699838883DF91CF913F
S11341900895CF93DF93EC010E9462062881398150
S11341A0821B930B019621E030E04A815B81481722
S11341B0590710F020E030E0C901DF91CF91089554
S11341C087B3876087BB88B3866088BB80E58DB979
S11341D081E08EB90895AA1BBB1B51E107C0AA1F39
S11341E0BB1FA617B70710F0A61BB70B881F991F94
S11341F05A95A9F780959095BC01CD010895AF9289
S1134200BF92CF92DF92EF92FF920F931F93CF93BF
S1134210DF93EC01688179818A819B816115710545
S11342208105910521F464E279ED8BE597E02DE1B8
S113423033EF41E050E00E94792479018A0127EAB2
S113424031E440E050E00E945A245B016C01C80153
S1134250B7012CEE34EF4FEF5FEF0E945A246A0D42
S11342607B1D8C1D9D1D97FF04C0615070408040D4
S11342709048688379838A839B837F77CB01DF911E
S1134280CF911F910F91FF90EF90DF90CF90BF904F
S1134290AF9008950E94FF20089580E191E00E946C
S11342A0FF200895A0E0B0E08093100190931101E5
S11342B0A0931201B09313010895FB01DC0104C023
S11342C08D910190801921F441505040C8F7881B0A
S11342D0990B0895FB01DC0102C001900D9241503D
S11342E05040D8F70895DC0101C06D93415050400F
S11342F0E0F70895DF93CF93CDB7DEB7FE0135968F
S1134300619171918091260B9091270BDC0113969A
S11343102C911397286013962C93AF010E949A2135
S1134320E091260BF091270B2381277F2383CF91E4
S1134330DF9108952F923F924F925F926F927F92F6
S11343408F929F92AF92BF92CF92DF92EF92FF92A1
S11343500F931F93DF93CF93CDB7DEB72C970FB690
S1134360F894DEBF0FBECDBF6C011B018A01FC01B6
S113437017821682838181FFD1C12E010894411CCA
S1134380511CF6019381F10193FD859193FF819175
S11343901F01882309F4BEC1853239F493FD859148
S11343A093FF81911F01853229F490E0B6010E94A8
S11343B0D023E7CFEE24FF2420E02032B0F48B3268
S11343C069F08C3228F4803251F0833271F40BC0DE
S11343D08D3239F0803349F421602CC0226024608E
S11343E029C0286027C0206125C027FD2CC0382F94
S11343F030533A3098F426FF08C08E2D880FE82EEB
S1134400EE0CEE0CE80EE30E15C08F2D880FF82E7F
S1134410FF0CFF0CF80EF30E20620CC08E3221F458
S113442026FD78C1206406C08C3611F4206802C0D1
S1134430883649F4F10193FD859193FF81911F0121
S1134440882309F0BACF982F9554933018F09052DE
S1134450933028F40C5F1F4FFFE3F9830DC08336BC
S113446031F0833771F0833509F060C022C0F80160
S1134470808189830E5F1F4F420171E0A72EB12C0A
S113448016C062E0662E712C600E711EF8018080E9
S1134490918026FF03C06E2D70E002C06FEF7FEFA6
S11344A0C4012C870E94C5235C0183012C852F77CE
S11344B017C052E0652E712C600E711EF8018080C9
S11344C0918026FF03C06E2D70E002C06FEF7FEF76
S11344D0C4012C870E94BA235C012C8520688301C7
S11344E023FD20C008C080E290E0B6012C870E9422
S11344F0D023FA942C858F2D90E0A816B90698F352
S113450011C0F40127FD859127FF81914F0190E0AF
S1134510B6012C870E94D0232C85F110FA940894BC
S1134520A108B108A114B10461F7F1C0843611F0F7
S1134530893649F527FF08C0F801608171818281BD
S113454093810C5F1F4F09C0F80160817181882736
S113455077FD8095982F0E5F1F4F4FE6B42EB22241
S113456097FF09C090958095709561957F4F8F4F07
S11345709F4FF0E8BF2AA2012AE030E00E94FC230A
S1134580782E741845C0853731F43FEEB32EB2222D
S11345902AE030E025C099EFB92EB2228F36C1F05F
S11345A0803720F4883509F0B5C00DC0803721F07C
S11345B0883709F0AFC002C020E1B22AB4FE0BC0B4
S11345C084E0B82A08C0B4FE09C0E6E0BE2A06C0EA
S11345D028E030E005C020E130E002C020E132E014
S11345E0B7FE08C0F80160817181828193810C5FFC
S11345F01F4F07C0F8016081718180E090E00E5F79
S11346001F4FA2010E94FC23782E7418FFE7BF22DB
S1134610B6FE0BC02EEFB2227E1438F4B4FE07C0EF
S1134620B2FC05C08FEEB82202C0A72C01C0AE2C8C
S11346308B2D90E0B4FE0DC0FE01E70DF11D20812D
S1134640203319F4E9EEBE2209C0A394B2FE06C0D9
S113465004C086789070009709F0A3948B2C992459
S1134660B3FC14C0B0FE0FC0AF1428F4E72CEF0C59
S1134670EA18AF2C08C0E72C06C080E290E0B6012F
S11346800E94D023A394AF14C0F304C0AF1410F459
S1134690FA1801C0FF2484FE0FC080E390E0B60145
S11346A00E94D02382FE1FC081FE03C088E590E0F3
S11346B010C088E790E00DC0C40186789070009720
S11346C091F081FC02C080E201C08BE2B7FC8DE274
S11346D090E0B6010E94D02306C080E390E0B601CA
S11346E00E94D023EA947E14C0F37A94F201E70D79
S11346F0F11D808190E0B6010E94D0237720A9F7B4
S113470006C080E290E0B6010E94D023FA94FF2014
S1134710C1F737CEF6012681378102C02FEF3FEF74
S1134720C9012C960FB6F894DEBF0FBECDBFCF9152
S1134730DF911F910F91FF90EF90DF90CF90BF908A
S1134740AF909F908F907F906F905F904F903F902D
S11347502F900895DC01CB01FC01E199FECF06C046
S1134760FFBBEEBBE09A31960DB20D924150504022
S1134770B8F70895FC010590615070400110D8F716
S1134780809590958E0F9F1F0895FC016150704095
S113479001900110D8F7809590958E0F9F1F089572
S11347A00F931F93CF93DF938C01EB018B8181FFD8
S11347B01BC082FF0DC02E813F818C819D812817F3
S11347C0390764F4E881F9810193F983E88306C029
S11347D0E885F985802F0995009731F48E819F81B2
S11347E001969F838E8302C00FEF1FEFC801DF91F4
S11347F0CF911F910F910895FA01AA27283051F102
S1134800203181F1E8946F936E7F6E5F7F4F8F4FFD
S11348109F4FAF4FB1E03ED0B4E03CD0670F781F5C
S1134820891F9A1FA11D680F791F8A1F911DA11D41
S11348306A0F711D811D911DA11D20D009F468947A
S11348403F912AE0269F11243019305D3193DEF622
S1134850CF010895462F4770405D4193B3E00FD0D8
S1134860C9F7F6CF462F4F70405D4A3318F0495DC3
S113487031FD4052419302D0A9F7EACFB4E0A695A6
S11348809795879577956795BA95C9F700976105C8
S1134890710508959B01AC010A2E0694579547951E
S11348A037952795BA95C9F7620F731F841F951F13
S11348B0A01D0895629FD001739FF001829FE00DB7
S11348C0F11D649FE00DF11D929FF00D839FF00D8B
S11348D0749FF00D659FF00D9927729FB00DE11D37
S11348E0F91F639FB00DE11DF91FBD01CF01112414
S11348F0089597FB092E05260ED057FD04D014D039
S11349000AD0001C38F450954095309521953F4FBE
S11349104F4F5F4F0895F6F7909580957095619588
S11349207F4F8F4F9F4F0895A1E21A2EAA1BBB1BE6
S1134930FD010DC0AA1FBB1FEE1FFF1FA217B30767
S1134940E407F50720F0A21BB30BE40BF50B661F7D
S1134950771F881F991F1A9469F760957095809541
S113496090959B01AC01BD01CF010895F894FFCF50
S113497052696D6500582D4D41430043534D41002C
S1134980010000000000FF00000000002D0057039C
S11349900B041C0006000400650369031B000200ED
S11349A08703890306000800BF03C7030500080046
S11349B0F703FF0300005316000000000000511726
S11349C0000000000200080066046E0435000200C6
S11349D07E048004BA000800EA04F2040000000225
S11349E0000000008119000000000000E01B00002E
S11349F0000014010000B9000000000000000001E4
S1134A000F08E907AA08A908BB09AF091810000094
S1134A10D80A160C3F0A0080C0E0F0F8FCFEFF053F
S1134A200185108C0E6E10A40DEB0CD80CE80C282C
S1134A3011B9100B01D8130912CB11D111D711DD03
S1134A4011ED1C8C1A881D381E631BF91A221A2AB0
S10B4A501AC41ADA1A02080064
S9030000FC
