S013000068656C6C6F2D776F726C642E73726563A8
S11300000C9498000C94B7000C94B7000C94B700AF
S11300100C94B7000C94B7000C94B7000C940D1D0D
S11300200C94B7000C94B7000C94B7000C94B70070
S11300300C94B7000C94B7000C94B7000C944F02C6
S11300400C94B7000C94B7000C94B2170C94B7003E
S11300500C94B7000C94B7000C94B7000C94B70040
S11300600C94B7000C94B7000C94351D0C94B70095
S11300700C94B7000C94B7000C94E0170C94B700E0
S11300800C94B7000C94B7000C94B700436F6E74D3
S1130090696B6920322E3720737461727465642E23
S11300A0204E6F64652069642025750A002573203D
S11300B025732C206368616E6E656C2063686563CC
S11300C06B207261746520256420487A2C2072614B
S11300D064696F206368616E6E656C2025640A0034
S11300E04D414320253032783A253032783A253054
S11300F032783A253032783A253032783A2530321F
S1130100783A253032783A253032780A0025640A64
S11301100025642E0052696D6520737461727465E4
S11301206420776974682061646472657373200065
S113013011241FBECFEFD0E1DEBFCDBF11E0A0E0A0
S1130140B1E0EAE0F8E400E00BBF02C007900D92D2
S1130150A03FB107D9F71AE0A0EFB1E001C01D92AA
S1130160A93EB107E1F70E94D3000C9403240C9438
S11301700000CF93DF93EC0188819981009721F4EB
S113018080E091E00E94B0201982188283E0DF9120
S1130190CF91089580E063E046E00E940F1880E06C
S11301A00E94511808950E94B70384E00E94BE0380
S11301B00E94CA000E94AB0281E00E94BE030E941A
S11301C014030E94230220918B0A8091F0019091E4
S11301D0F101820F911D0E9449150E940B150E9486
S11301E0121181E591E060E070E00E94C7110E9465
S11301F0B31482E00E94BE030E941C0100D000D010
S11302008CE890E0EDB7FEB7928381838091F00192
S11302109091F101948383830E9490200F900F901A
S11302200F900F9087E00E94C6038FE891E00E9430
S1130230F6110E942411FDCFCF92DF92EF92FF922C
S11302400F931F93DF93CF93CDB7DEB728970FB6E5
S1130250F894DEBF0FBECDBF8091F0019091F10103
S1130260009739F48091920A89838091910A8A8354
S113027002C089839A838E010F5F1F4FC8010E94B9
S1130280ED0300D085E191E0ADB7BEB712969C9323
S11302908E9311970E94902000D0EDB7FEB731964F
S11302A081E191E0ADB7BEB712969C938E931197FE
S11302B08981828313820E949020EDB7FEB7319624
S11302C08DE091E0ADB7BEB712969C938E931197D3
S11302D08A81828313820E9490200F900F900F9046
S11302E00F900E94A81B9091930A80E02091940A99
S11302F07C01E20EF11C88E0F80111928A95E9F77D
S1130300C80163E97AE00E94DA038DB79EB7429789
S11303100FB6F8949EBF0FBE8DBFEDB7FEB73196F2
S113032080EE90E0ADB7BEB712969C938E93119772
S11303308981828313828A81848315828B81868357
S113034017828C81808711868D81828713868E81A6
S1130350848715868F81868717868885808B118A86
S11303600E949020EDB7FEB772960FB6F894FEBFC8
S11303700FBEEDBF8DEC9BEAB701A8010E941E1BC6
S11303808AE190E00E94CE1AE091BA01F091BB019B
S11303900995E091CE01F091CF010995E091970183
S11303A0F091980109950091CC011091CD01C09074
S11303B0B801D090B901E090C601F090C701F701EF
S11303C00995009741F0F7010995BC0180E890E098
S11303D00E94012002C060E870E08DB79EB70A97C2
S11303E00FB6F8949EBF0FBE8DBFEDB7FEB7319622
S11303F08DEA90E0ADB7BEB712969C938E93119799
S113040013830283D582C482778366838AE190E072
S1130410918780870E949020EDB7FEB73A960FB679
S1130420F894FEBF0FBEEDBF28960FB6F894DEBF5A
S11304300FBECDBFCF91DF911F910F91FF90EF9031
S1130440DF90CF900895DF93CF9300D000D00F9228
S1130450CDB7DEB78FB78983F89480E090E0BE0112
S11304606E5F7F4F44E050E00E94A7038A819B8126
S11304702EED8D3A920719F48C819D8102C080E0A3
S113048090E09093F1018093F00189818FBF0F90E8
S11304900F900F900F900F90CF91DF9108951F92BE
S11304A00F920FB60F920BB60F9211242F933F9316
S11304B04F935F936F937F938F939F93AF93BF9368
S11304C0EF93FF938091F6019091F7010196909339
S11304D0F7018093F6018091F8019091F90101965A
S11304E09093F9018093F8018091F8019091F901BA
S11304F080389105B9F41092F9011092F8018091B5
S1130500F2019091F301A091F401B091F5010196EB
S1130510A11DB11D8093F2019093F301A093F40106
S1130520B093F5010E940C14009711F00E943D1342
S1130530FF91EF91BF91AF919F918F917F916F91B7
S11305405F914F913F912F910F900BBE0F900FBE73
S11305500F901F901895F89487B78C7F87BF80B74A
S1130560886080BF8BE083BF12BE88E081BF16BE67
S113057080B790E0877090700097D1F787B782605A
S113058087BF1092F7011092F60178940895209194
S1130590F6013091F7018091F6019091F701281747
S11305A03907A9F7C901089507C022E330E0000024
S11305B021503040E1F701970097B9F7089587E09B
S11305C090E020E030E0AAE0B0E060E170E045E6D1
S11305D050E0D49ADC98FD013197F1F7D498DC9A75
S11305E0FB013197F1F7CC992068FA013197F1F7C3
S11305F0009711F4C9010895019736952795E9CF1D
S11306006827792788E090E04CE850E09B01369514
S1130610279560FF04C0B9016427752701C0B9019B
S11306200197A1F7CB010895CF92DF92EF92FF9249
S11306300F931F93DF93CF930F92CDB7DEB7D49868
S1130640DC988FB78983F894D49ADC9889E993E08D
S11306500197F1F7D498DC9A80E890E00197F1F7DC
S113066029B383EF92E00197F1F724FD5AC0B8E073
S1130670A3E3EEE6F0E062E170E04AE050E025E753
S113068030E0A0FF09C0D49ADC98CA010197F1F7C1
S1130690D498DC9AC90108C0D49ADC98CF01019798
S11306A0F1F7D498DC9ACB010197F1F7B15011F02E
S11306B0A695E7CF0E94DF026C0103E91AE07801F6
S11306C00E94DF02D7018E937D01BDE8EB16BAE0EC
S11306D0FB06B1F70E94DF027C0189818FBFE1E054
S11306E0CE16D10401F580E090E061E070E00E9454
S11306F00003D8016E918D0170E00E940003BAE0FE
S11307000D381B07B1F78E159F0569F410928B0AFB
S11307108AE180938C0A8CE480938D0A21E030E096
S11307200BC089818FBF88E0EBE8FAE0DF011D92FE
S11307308A95E9F720E030E0C9010F90CF91DF916D
S11307401F910F91FF90EF90DF90CF9008959B0140
S1130750E199FECFBC01C9010E94F722089590914E
S1130760FA018091FB0189270E94611808950E9473
S11307705A181092FA011092FB0108959091FB010E
S1130780982B9093FB010E94AF030895809590915C
S1130790FB0198239093FB010E94AF03089590916D
S11307A0FA0198279093FA010E94AF0308950E94DA
S11307B0CF030895FB0120813181FC013183208323
S11307C0089542E050E00E94732021E030E0009759
S11307D011F020E030E0C9010895BC0183E99AE0FA
S11307E00E94DA0308950F931F93CF93DF930E941F
S11307F04F06EC018CEF91E00E9499120BC0D801D6
S11308001296ED91FC911397309709F00995C80160
S11308100E94E412082F192F0115110581F7209762
S113082019F0CE010E943406DF91CF911F910F91F0
S113083008950E94DD160E946C160E9475040E94A1
S11308404C0682E090E060E072E040E05EE12FEF71
S113085031E00E9491050895CF92DF92EF92FF92CA
S11308600F931F93CF93DF936C01EB018A018CEFFD
S113087091E00E9499120CC0D7011496ED91FC915D
S11308801597309711F0CE010995C7010E94E41223
S1130890E82EF92EE114F10479F7C601BE01A8018E
S11308A00E944006DF91CF911F910F91FF90EF902E
S11308B0DF90CF900895CF93DF93EC010E945F0601
S11308C0009769F00E94EB15E091D001F091D101FD
S11308D08CE294E0BE01099521E030E002C020E002
S11308E030E0C901DF91CF9108958EEF91E00E942D
S11308F095120895909301028093000208958EEF5B
S113090091E00E9499120895EF92FF920F931F9322
S1130910CF93DF938C01EB017A018EEF91E00E947B
S1130920991215C0DC0112962D913C9113972C1746
S11309303D0759F41696ED91FC911797309761F0A5
S1130940B801AE019701099507C00E94E412282F4F
S1130950392FC901009731F7DF91CF911F910F9182
S1130960FF90EF9008950895AF92BF92CF92DF92D7
S1130970EF92FF920F931F93DF93CF9300D0CDB7E5
S1130980DEB75B010E94CE158C01FC01E080F18092
S1130990FA82E9820E9420169701220F331F220F48
S11309A0331F2E5F3F4F8217930798F0CC24DD242A
S11309B00DC0F8016281738144815581C5010E9493
S11309C084040894C11CD11C0C5F1F4FCE14DF0497
S11309D080F30F900F90CF91DF911F910F91FF90B3
S11309E0EF90DF90CF90BF90AF900895CF93DF93B7
S11309F0CFE1D2E06091350270913602CE0148E237
S1130A0055E020E030E00E94C0140E944C15609133
S1130A103502709136020E940120BC01CE0140973C
S1130A204DE355E020E030E00E94C014DF91CF9107
S1130A3008950F93013051F480912F029091300268
S1130A4090933602809335020E94F6040F91089524
S1130A508091350290913602209133023091340214
S1130A60880F991F2817390708F4C9019093360293
S1130A70809335020E94F6040895EF92FF92CF937B
S1130A80DF930E946C160E94CE15E82EE7017E01CA
S1130A90F92EE701198218820E947F0426C028815A
S1130AA03981F901EE0FFF1FEE0FFF1FEC0FFD1F41
S1130AB0DC0112964D915C911397538342832F5F0F
S1130AC03F4FF901EE0FFF1FEE0FFF1FEC0FFD1F4D
S1130AD014964D915C9115975183408339832883F3
S1130AE00E94E412282F392FC901009721F0FC013C
S1130AF020852223A1F688819981880F991F880F68
S1130B00991F02960E94C91588819981009721F046
S1130B1082E092E00E940906DF91CF91FF90EF906E
S1130B200895EF92FF920F931F93CF93DF93FC01ED
S1130B308B017A01E90182E092E0BF014BE951E0C7
S1130B400E94EE051093300200932F02F0923202BD
S1130B50E0923102D0933402C093330289E195E0EC
S1130B600E947A04DF91CF911F910F91FF90EF9033
S1130B700895DC011B96ED91FC911C970280F38192
S1130B80E02D309709F009950895EF92FF920F93A5
S1130B901F93DF93CF9300D0CDB7DEB78C017E01D6
S1130BA00894E11CF11CC70166E97AE00E94DA03AB
S1130BB0D8011B96ED91FC911C970190F081E02DDA
S1130BC0309719F0C801B70109950F900F90CF9194
S1130BD0DF911F910F91FF90EF900895EF92FF9294
S1130BE00F931F93CF93DF93EC018B017A014FE9AD
S1130BF051E00E941806FC86EB86C80163EA71E0A6
S1130C000E94A306DF91CF911F910F91FF90EF9067
S1130C100895CF93DF93EC0186E99AE063E97AE0E3
S1130C200E94DA03CE010E943106DF91CF9108952C
S1130C30EF92FF920F931F93CF93DF93EC018B01FD
S1130C407A010E948206F886EF82C80167EA71E0A1
S1130C500E94A306DF91CF911F910F91FF90EF9017
S1130C6008950E945B040895FC01A781B0852D912D
S1130C703C9111972115310511F0F9010995089559
S1130C80DC011796ED91FC9118970280F381E02D19
S1130C90309709F0099508950E947D060895E09122
S1130CA0A901F091AA010995FC01009731F0828114
S1130CB093819093A10A8093A00ACF010895CF93C2
S1130CC0DF93EC01E091AB01F091AC0109952A812D
S1130CD03B813093A10A2093A00A21E030E00097E1
S1130CE011F420E030E0C901DF91CF910895E09143
S1130CF0AD01F091AE010995089589E392E00E9457
S1130D0095120895FC017383628389E392E0BF0125
S1130D100E94ED120895CF93DF93EC0189E392E0F2
S1130D200E94991208C0828193818C179D0739F023
S1130D30CF010E94E412E82FF92F3097A1F7CF01D9
S1130D40DF91CF9108950F931F93CF93DF938B017E
S1130D500E948B06EC01009731F01D830C83C801BF
S1130D600E9477068E83DF91CF911F910F91089592
S1130D70FC0120E030E004C08181280F311D32964F
S1130D8080818823C9F7C9010895FC01818190E01D
S1130D90308120E0822B932B02C0880F991F6A9523
S1130DA0E2F7892F9927FA01E155FE4F208130E0BF
S1130DB08223932328E030E0241B350B02C0969550
S1130DC087952A95E2F708956F927F928F929F926A
S1130DD0AF92BF92CF92DF92EF92FF920F931F9345
S1130DE0CF93DF936C017B015A01890128303105CF
S1130DF044F4CB01BA01A9010E94C506F60180831F
S1130E0041C0390133E0759467943A95E1F741158F
S1130E10510521F04C01C0E0D0E016C0DB01FC011B
S1130E20C0E0D0E08D9181932196C615D705D4F307
S1130E30A801477050704115510521F1C7018C0F6D
S1130E409D1F60E070E019C0C7018C0F9D1FB501A4
S1130E5048E050E00E94C506F40181934F012196B9
S1130E60C615D7058CF3A80147705070411551057C
S1130E7049F0C7018C0F9D1FB5010E94C506CC0D1A
S1130E80DD1D8883DF91CF911F910F91FF90EF902B
S1130E90DF90CF90BF90AF909F908F907F906F9096
S1130EA008954F925F926F927F928F929F92AF922A
S1130EB0BF92CF92DF92EF92FF920F931F93DF9333
S1130EC0CF9300D000D0CDB7DEB70E94CE15E82E68
S1130ED0092F82E090E00E94AA15009709F473C0DC
S1130EE0EE2DF02F918180E02081820F911D0E94D0
S1130EF08B067C01009709F468C00E94CE153C0162
S1130F00D70116964C911697242F30E02770307035
S1130F1081E090E02115310511F480E090E04695E0
S1130F2046954695840F911D0E94AA15009709F4D1
S1130F304AC0F70104811581CC24DD24F3E04F2E4F
S1130F40512C4C0E5D1E4E010894811C911C36C020
S1130F50D8011196AC901197BB24B601E3E07595C6
S1130F606795EA95E1F7660D771DA6014770507005
S1130F70883178F0C40195010E94E406F80180816B
S1130F8090E0880F991F8A59954FB4010E94DA03A3
S1130F9011C01C821B82C20195010E94E406D80183
S1130FA0EC91F0E0EE0FFF1FE256F54F8B819C8130
S1130FB091838083CA0CDB1C0E5F1F4FF801808174
S1130FC0882331F602C0EE24FF24C7010F900F904E
S1130FD00F900F90CF91DF911F910F91FF90EF90A1
S1130FE0DF90CF90BF90AF909F908F907F906F9045
S1130FF05F904F900895FC0150E080E190E0861BE3
S1131000970B821B930B02C0440F551F8A95E2F77E
S11310108081852B80838181842B818308956F92C5
S11310207F928F929F92AF92BF92CF92DF92EF9274
S1131030FF920F931F93CF93DF938C015B016A019F
S113104079012830310524F4C801FA01408156C0E1
S11310503901A3E075946794AA95E1F761157105C8
S113106021F04A01C0E0D0E021C0DA01F80180E0BB
S113107090E02D912193019686159705D4F397015D
S11310802770307021153105D9F1F601E80FF91FE9
S1131090408150E068E070E0621B730B02C055951C
S11310A047956A95E2F7800F911F26C0F40141919C
S11310B04F01C8018C0F9D1FB50128E030E00E944C
S11310C0FB072196C615D7058CF39701277030705E
S11310D021153105A9F0F601EC0FFD1F408150E008
S11310E0C5010896821B930B02C0559547958A95B6
S11310F0E2F7C8018C0F9D1F60E070E00E94FB07BF
S1131100DF91CF911F910F91FF90EF90DF90CF90DF
S1131110BF90AF909F908F907F906F9008958F9223
S11311209F92AF92BF92CF92DF92EF92FF920F9372
S11311301F93DF93CF9300D0CDB7DEB78C01DC01D2
S113114016964C911697842F90E08770907021E04A
S113115030E0009711F420E030E04695469546953E
S11311607901E40EF11CC70102960E943116009722
S113117009F455C00E94D615FC01D80112968C9131
S11311801297808313968C9181830E94D61542E036
S1131190A42EB12CA80EB91EC50160E070E0A70111
S11311A00E948920F801E480F58000E010E04E01FF
S11311B00894811C911C2CC0D7011196CC901197D6
S11311C0DD24C80133E0959587953A95E1F78A0DBA
S11311D09B1DB80167707070422F50E0283128F0D1
S11311E0440F551F4A59554F0AC0FA01EE0FFF1F0D
S11311F0E256F54F208131813A832983A401960177
S11312000E940F080C0D1D1DE2E0F0E0EE0EFF1E23
S1131210D7012C91222381F621E030E002C020E0A6
S113122030E0C9010F900F90CF91DF911F910F9182
S1131230FF90EF90DF90CF90BF90AF909F908F90F2
S1131240089580913B02882361F080914E028823A7
S113125041F481E080934E02E091EA01F091EB01C8
S11312600995089580913B02882379F080914E027C
S1131270882359F080914202882339F410924E0257
S1131280E091EC01F091ED010995089580914D02F2
S1131290882331F480914C02882311F40E9432098E
S11312A0089510923B02009731F0E091EA01F09129
S11312B0EB0109950895E091EC01F091ED01099598
S11312C0089580E190E008950F931F9381E0809347
S11312D03B02609188007091890080912B0190916C
S11312E02C01680F791F8CE392E041E050E029E97A
S11312F039E000E010E00E940E1581E090E01F91BB
S11313000F9108950F931F939B0140913B02442337
S113131069F0FC0160817181620F731F41E050E04C
S113132029E939E000E010E00E940E151F910F91A9
S11313300895CF93DF93EC01809142028823D1F08A
S11313408091880090918900209143023091440259
S1131350821B930B97FD0EC01092420285E492E02B
S113136063E971E00E94DA0387E492E063E971E0E3
S11313700E94DA038091490290914A0221E083336A
S1131380920721F121E08234920719F0009709F0C5
S11313904CC080914B02882329F080914B028150EC
S11313A080934B0280914D02882331F480914C024A
S11313B0882311F40E9421096091290170912A0166
S11313C0CE010E94820983E391E029C080912B0120
S11313D090912C010097E9F2E091E601F091E70188
S11313E009950097B1F60E94460980914C02882322
S11313F069F080914C028F5F80934C0280914C0283
S1131400833020F010924C020E94460960912B0117
S113141070912C01CE010E94820982E491E09093A4
S11314204A028093490281E005C010924A02109258
S1131430490283E0DF91CF9108950F931F93CF93D7
S1131440DF93E091CA01F091CB01099597FD7CC02F
S11314500E94CE15FC018081882309F456C01092A5
S11314604B0288E99AE063E97AE00E94E10300977D
S113147049F488E99AE063E971E00E94E103009786
S113148009F462C00E94320901E512E0C0E0D0E034
S1131490F801808190E02091B80A3091B90A2817A8
S11314A0390771F4BE01660F771F6C0F7D1F615BF6
S11314B07D4F86E99AE00E94E103009709F044C059
S11314C021960D5F1F4FC830D10511F784E692E0D5
S11314D0DC01FC01339723E001900D922150E1F7E8
S11314E00397F2E08F349F0799F72091B80A20936D
S11314F0510266E97AE00E94DA0310924C02E0910C
S1131500D201F091D30109951FC081818031E1F4AA
S113151082E080934B0288E99AE063E97AE00E94D2
S1131520E103009721F081E080934C020DC088E92B
S11315309AE063E971E00E94E103009729F081E0F9
S113154080934C020E942109DF91CF911F910F914A
S113155008950F931F93DF93CF9300D000D00F9281
S1131560CDB7DEB7009188001091890081E00E9418
S1131570BE03009510958091880090918900800F9A
S1131580911F97FDF8CF81E00E94C603E091E60128
S1131590F091E7010995009771F4E091E801F09169
S11315A0E9010995009739F4E091E401F091E5012E
S11315B009950097C9F420918800309189008091A1
S11315C08800909189000797821B930B97FDF7CFB2
S11315D0E091E201F091E301CE01019663E070E055
S11315E009958330910561F080E090E00F900F90B1
S11315F00F900F900F90CF91DF911F910F9108954D
S113160084E00E94D70381E0F0CF2F923F924F9263
S11316105F926F927F928F929F92AF92BF92CF927E
S1131620DF92EF92FF920F931F93DF93CF93CDB787
S1131630DEB7E6970FB6F894DEBF0FBECDBF9CAB06
S11316408BAB7EAB6DAB80914B02882309F093C1C9
S113165086E99AE063E97AE00E94DA0388E99AE08D
S113166063E971E00E94E1034C0181E090E0909312
S1131670B50A8093B40AE091C801F091C9010995B3
S11316807C0197FD6CC142E0442E512C480E591E3A
S113169083E3481651040CF062C10E94D615BC01C4
S11316A08E010F5F1F4FC801A7010E948020F8011F
S11316B0EE0DFF1D1082FE01EE0DFF1D80E1828301
S11316C00E94EB150E94EA165C01009709F44AC1D6
S11316D080914202813081F488E99AE065E472E005
S11316E00E94E103009759F488E99AE067E472E004
S11316F00E94E103009719F4CC24DD2403C031E0F7
S1131700C32ED12C8091BA0A9091BB0A82309105E4
S113171031F581E08093420285E492E063E971E06F
S11317200E94E103009719F085E492E00AC085E481
S113173092E068E97AE00E94E103009731F487E4DB
S113174092E068E97AE00E94DA038091880090913F
S11317508900805E934E90934402809343020E94DA
S1131760320987E692E00E949912082F192F24E883
S1131770E22E23E0F22E2BC0B8016E5F7F4F88E982
S11317809AE00E94E1030097E9F0209188003091EB
S11317908900F80184819581821B930BB7010E9413
S11317A001208A35910510F484E893E02A553040ED
S11317B0280F391F8091880090918900821B930B18
S11317C097FDF8CFC8010E94E412082F192F0115C4
S11317D0110591F691E0E92EF12C8114910411F494
S11317E0EE24FF2481E080934D0220908800309005
S11317F08900C114D10409F04FC00E949A1D0091C0
S11318008800109189006090E0017090E1016E0100
S11318100894C11CD11C2AC0809188009091890031
S1131820821B930B801B910B97FDF6CF00918800D0
S113183010918900E114F10469F0C5010E94661752
S11318400E94D6154C010E942516BC01C401F30167
S113185009950AC00E942109C601B201F301099544
S11318600E94A90A0097A9F40E9432098091880075
S11318709091890020912D0130912E0182199309B4
S1131880821B930B97FF08C020912F0130913001E8
S1131890C3CF8824839401C08824C5010E9466179D
S11318A0C5010E944417E114F10431F4882021F4A5
S11318B0809142028823A1F0C090E001D090E10120
S11318C00E94D6158C010E942516BC01C801F601A0
S11318D00995E114F10421F40E94A90A009711F476
S11318E0CC2402C0CC24C3940E943209882069F11C
S11318F080914202882349F587E692E00E9499127A
S113190010C0B8016E5F7F4F88E99AE00E94E1033E
S1131910009721F0F8011582148217C0C8010E94B3
S1131920E412082F192F0115110559F747C0C801F2
S1131930029668E97AE00E94DA03F80115821482BB
S113194087E692E0B8010E94ED120E94901D109269
S11319504D02E114F10449F4CC2039F409C045E006
S113196050E00BC044E050E008C040E050E005C047
S113197042E050E002C041E050E08BA99CA96DA96F
S11319807EA921E030E00E942A0DE6960FB6F89475
S1131990DEBF0FBECDBFCF91DF911F910F91FF909E
S11319A0EF90DF90CF90BF90AF909F908F907F90FB
S11319B06F905F904F903F902F90089581E391E056
S11319C00E942D128C01009709F0B1CFBECF0F9366
S11319D01F93CF93DF938C01EB014115510549F01F
S11319E0FA01828193810E946617C801BE010E9498
S11319F0050BDF91CF911F910F9108950F931F93C2
S1131A0010924E0210924C0210924A021092490215
S1131A10609188007091890080912B0190912C0134
S1131A20680F791F8CE392E041E050E029E939E046
S1131A3000E010E00E940E1581E080933B0287E6EF
S1131A4092E00E94951281E391E00E940D121F9191
S1131A500F910895FC01CB01309719F0BA01A90147
S1131A60099508950F931F93DF93CF93CDB7DEB7F6
S1131A70E0970FB6F894DEBF0FBECDBF0E942016CC
S1131A808C010E94CE15B801AE014F5F5F4F0E94DA
S1131A90031F009709F447C088A99801281B31093E
S1131AA0C9010E94AA150097F1F12E81222331F178
S1131AB08A859B853BEA8D3C930721F03FEF8F3F5E
S1131AC0930789F5223041F088E090E007C0019740
S1131AD022912F3F41F00BC082E090E0FE01E80F1D
S1131AE0F91F3C96F4CF181619068CF307C088E941
S1131AF09AE0BE01645F7F4F0E94DA0386E99AE0B0
S1131B00BE016A5E7F4F0E94DA038B818093C20A12
S1131B101092C30A89858093B80A1092B90A88A9D9
S1131B20081B110902C00FEF1FEFC801E0960FB6A2
S1131B30F894DEBF0FBECDBFCF91DF911F910F91FF
S1131B400895EF92FF920F931F93DF93CF93CDB736
S1131B50DEB7E0970FB6F894DEBF0FBECDBFFE012F
S1131B60319680E3DF011D928A95E9F78091850221
S1131B70882339F481E0809385020E944C15809378
S1131B80860281E089831A828091C20A8B8388E964
S1131B909AE063E971E00E94E103009711F01C826E
S1131BA003C08091B40A8C831D821F828091B20A83
S1131BB09091B30A009711F089870BC08091860237
S1131BC08987982F9F5F909386028093B20A109220
S1131BD0B30A02E008878DEC9BEA9B878A8788E931
S1131BE09AE063E971E00E94E103009729F00E8313
S1131BF08FEF8C878D8707C0CE010C9668E97AE059
S1131C000E94DA030E838DEC9BEA9D8B8C8BCE01B4
S1131C10469663E97AE00E94DA030E94CE159FA7F4
S1131C208EA70E94201688AB7E010894E11CF11C4B
S1131C30C7010E94FA1D8C010E943116009741F0E1
S1131C400E94D615BC01C701A8010E941F1E02C034
S1131C500FEF1FEFC801E0960FB6F894DEBF0FBE7A
S1131C60CDBFCF91DF911F910F91FF90EF90089519
S1131C70E091C601F091C70109959C01009711F408
S1131C8020E130E0C9010895E0919901F0919A01B1
S1131C9009950895E091C201F091C3010995089551
S1131CA0E091C401F091C50109950895E091C60140
S1131CB0F091C701309719F009959C0102C020E00A
S1131CC030E0C9010895EF92FF92CF93DF93E82E9D
S1131CD0E7017E01F92EE701209779F0898D9A8D2D
S1131CE00E949912AC01009741F0E091BE01F0917D
S1131CF0BF0186EA9FE0B7010995DF91CF91FF907C
S1131D00EF900895AF92BF92CF92DF92EF92FF923D
S1131D100F931F93CF93DF936C017B018091870214
S1131D2090918802009731F481E090E090938802CA
S1131D308093870280918702909188029C012F5F93
S1131D403F4F30938802209387029093B30A809385
S1131D50B20A89E892E00E949912292FA82EE5017F
S1131D600EC0CE01029668E97AE00E94E103009772
S1131D7011F5CE010E94E412292FA82FED015E0176
S1131D80B22EE501209769F783C0CE01029668E977
S1131D907AE00E94DA031C8A1D8A1E8ACE014796C5
S1131DA09A8F898F188E1F8A0E94951289E892E073
S1131DB0BE010E94ED1281E491E00E942D128C017B
S1131DC0009709F44CC089E491E00E942D12D801D7
S1131DD015969C938E9314970097E1F10E94EA164E
S1131DE0F801938382830480F581E02D009769F1E3
S1131DF08091B00A9091B10A009709F483E084833A
S1131E00D182C082F382E2822091BA0A3091BB0A65
S1131E10898D9A8D2130310521F4B8010E94C012B8
S1131E2003C0B8010E94ED12898D9A8D0E94991207
S1131E3080179107D1F5CE01049660E070E043E687
S1131E405EE09E010E94C01430C089E491E0BF01AD
S1131E500E94531281E491E0B8010E945312898DCB
S1131E609A8D0E94D612009751F489E892E0BE013F
S1131E700E949D1289E391E0BE010E945312C601A3
S1131E80B70144E050E021E030E00E942A0D0DC08B
S1131E9089E391E00E942D12A82EE5015E01B92E7E
S1131EA0E501209709F071CFEACFDF91CF911F911F
S1131EB00F91FF90EF90DF90CF90BF90AF90089577
S1131EC00F931F93CF93DF93EC018B016115710581
S1131ED0C1F1898D9A8D0E949D12F80182819381AE
S1131EE00E944417F8016481758189E491E00E949D
S1131EF0531281E491E0B8010E945312898D9A8DA6
S1131F000E9499128E010C5F1F4F009769F01C8A82
S1131F101D8A1E8A0E94380EBC01C80143E65EE099
S1131F209E010E94C0140DC0C8010E94F31489E8E8
S1131F3092E0BE010E949D1289E391E0BE010E94DD
S1131F405312DF91CF911F910F9108954F925F9299
S1131F506F927F928F929F92AF92BF92CF92DF92B5
S1131F60EF92FF920F931F93CF93DF938B01E82E91
S1131F70E7017E01F92EE701209709F481C0613061
S1131F80710591F06230710524F46115710541F019
S1131F9012C06230710521F06330710561F408C02C
S1131FA08C898F5F8C8B07C08D898F5F8D8B03C06D
S1131FB08E898F5F8E8B898D9A8D0E94991210C0A5
S1131FC0F701828193816AE00E94A4172091B20AEA
S1131FD03091B30A8217930749F0C7010E94E412B3
S1131FE0E82EF92EE114F10459F74AC0F701C48030
S1131FF0D580C114D10409F443C0F601A080B18096
S1132000828093805C88C80101978230910568F5CD
S11320100E94380E3C014C880E944C153C89F60104
S11320202481321710F5242D30E02F5F3F4F2430E8
S1132030310514F023E030E0629EB001639E700D20
S1132040729E700D11240E940120BC01660D771D43
S1132050CE01049643E65EE09E010E94C014F7019F
S1132060828193810E9439170BC0CE01B7010E946F
S1132070600FC501B401A801252D30E00E942A0D8E
S1132080DF91CF911F910F91FF90EF90DF90CF9050
S1132090BF90AF909F908F907F906F905F904F9084
S11320A0089581E491E00E940D1289E491E00E9478
S11320B00D1289E391E00E940D1208951F93CF93AE
S11320C0DF93EC01162F8E8180FF1DC0EA81FB8116
S11320D03097C9F0D0932E03C0932D0382E08E83F2
S11320E0CE0104960995992787FD90950297823031
S11320F0910510F0133829F4CE01BE010E94871017
S113210002C081E08E83DF91CF911F910895CF9219
S1132110DF92EF92FF920F931F93CF93DF93EC0123
S11321207B01C0902D03D0902E0300912B031091BE
S11321302C03F80103C00190F081E02DEC17FD079A
S113214019F03097C1F746C0209709F443C08E8137
S1132150882309F11E820BC0C017D10729F0C801DA
S113216067E8AE010E945E10F8010081118101153B
S1132170110591F7EA81FB81309769F0CE15DF05EF
S113218051F0D0932E03C0932D03CE01049663E83F
S113219040E050E00995E0912B03F0912C03CE1719
S11321A0DF0791F48881998190932C0380932B030A
S11321B00DC0808191818C179D0729F488819981B4
S11321C09183808303C0FC01309799F7D0922E034A
S11321D0C0922D03DF91CF911F910F91FF90EF904B
S11321E0DF90CF9008951F93CF93DF9310922F0326
S11321F0C0912B03D0912C0311E00EC08F81882352
S113220041F01E831F82CE0162E840E050E00E944C
S11322105E100990D881C02D209781F7DF91CF916E
S11322201F9108958AE880936203109231031092FB
S113223030031092950A10922C0310922B031092E3
S11322402E0310922D03089580912F03882311F0FB
S11322500E94F31070913003772309F455C0209144
S1132260310330E0F901EE0FFF1FEE0FFF1FE20F05
S1132270F31FEE5CFC4F60816093610341815281E6
S11322805093600340935F038381948190935E0332
S113229080935D032F5F3F4F27703070209331038D
S11322A0715070933003009741F580912B03909106
S11322B02C0318C080912F03882311F00E94F3107F
S11322C040915F035091600380915B0390915C03A4
S11322D0609161030E945E10E0915B03F0915C03E6
S11322E08081918190935C0380935B0380915B0375
S11322F090915C030097F1F607C0613819F421E06E
S1132300FC0126830E945E1080912F0320913003EC
S113231030E0280F311DC9010895709130037830E1
S113232001F120913103270F277020935A0330E0E5
S1132330F901EE0FFF1FEE0FFF1FE20FF31FEE5C1C
S1132340FC4F60835283418394838383872F8F5F01
S1132350809330039091950A981730F48093950AEE
S113236003C021E030E002C020E030E0C90108955C
S1132370CF93DF93C0912D03D0912E030E945E1062
S1132380D0932E03C0932D03DF91CF910895FC01C8
S1132390AB0190912B0380912C039C01A32FB22FAE
S11323A003C00D90BC91A02DAE17BF0791F01097FC
S11323B0C1F7309771F090838183F0932C03E093FD
S11323C02B0381E0868315821482CF0161E80E9489
S11323D0B8110895FC01009741F086818150823044
S11323E020F481E0878380932F030895EF92FF9276
S11323F0CF93DF93E82EE7017E01F92EE70104C0B5
S113240060E070E00E94C711899199910097C1F72B
S1132410DF91CF91FF90EF900895CF93DF93EC017C
S11324204A815B818C819D8160E070E00E948920FB
S11324304A815B8188819981489F9001499F300D31
S1132440589F300D11248E819F8160E070E0A901B6
S11324500E948920DF91CF910895FC0182819381AC
S113246020E030E019C0A481B581A20FB31F4C91C4
S1132470442381F481E08C9340815181249FC001E5
S1132480259F900D349F900D112426813781280FAC
S1132490391F07C02F5F3F4F2817390720F320E06B
S11324A030E0C9010895FC012681378142815381BE
S11324B080E090E018C02617370781F4A481B58125
S11324C0A80FB91F2C91121614F421502C930480D8
S11324D0F581E02DE80FF91F80810895A081B18175
S11324E02A0F3B1F01968417950728F38FEF089551
S11324F0FC01CB01268137816217730790F0A0811C
S1132500B18162817381A69FA001A79F500DB69FE0
S1132510500D1124420F531F21E030E0841795071A
S113252010F020E030E0C9010895FC01118210820E
S11325300895FC01808191810895CF93DF93EC018C
S1132540888199810097C9F0FC01A0E0B0E0E6170A
S1132550F70761F480819181109719F49983888336
S113256002C08D939C931182108207C08081918157
S1132570DF01009711F0FC01EACFDF91CF910895BC
S1132580EF92FF920F931F937C018B010E949D1287
S1132590F70180819181F80191838083F701118390
S11325A000831F910F91FF90EF900895FC0101901B
S11325B0F081E02D80E090E004C001960190F0816C
S11325C0E02D3097D1F70895FC01892B19F480E0B0
S11325D090E008958081918108950F931F93CF9384
S11325E0DF938C01EB010E949D1219821882F8017D
S11325F080819181009739F0FC018081918100975D
S1132600D9F7309709F4F801D183C083DF91CF91D2
S11326101F910F9108958091630390916403009733
S113262029F4109266031092650308950E94C7026C
S1132630E0916303F09164032281338140815181ED
S1132640240F351F281B390B0CC042815381608134
S11326507181460F571F481B590B4217530708F443
S11326609A010480F581E02D309779F7280F391FFE
S11326703093660320936503089581E591E00E94F9
S1132680EA110895CF92DF92EF92FF920F931F9376
S1132690CF93DF937C01FC0180819181009729F025
S11326A08935910509F06EC00BC010926403109235
S11326B0630389E590E0F7019183808381E066C03C
S11326C0673849F5CA01E0916303F091640303C0DC
S11326D00480F581E02D309741F326813781281756
S11326E03907B1F3E0936303F09364030FC01696C4
S11326F02D913C9117972817390739F414962D9189
S11327003C91159735832483DF01FD01A481B581B4
S1132710109769F7CECF623861F6C0916303D09108
S1132720640300E010E02BC0CE010E94DF1F00977D
S1132730F1F08E819F8168E8AE010E948D110097AF
S1132740A1F41F821E828C819D810115110521F047
S1132750F8019583848304C0909364038093630396
S11327601D821C820E940B13D8CF0E943D138E0140
S11327709C818D81C92EE6016E01D82EE601209739
S113278099F697CFF7011182108283E0DF91CF9100
S11327901F910F91FF90EF90DF90CF900895CF930A
S11327A0DF93EC010E943D138E819F810097A1F07D
S11327B0E0916303F09164030DC0EC17FD0739F455
S11327C080912D0390912E039783868315C00480F6
S11327D0F581E02D309789F780912D0390912E0398
S11327E09F838E8380916303909164039D838C8384
S11327F0D0936403C09363030E940B13DF91CF91C2
S11328000895CF93DF93EC010E94D31FCE010E9461
S1132810CF13DF91CF91089521E030E080916303DD
S113282090916403009711F420E030E0C901089509
S1132830CF93DF93EC01E0916303F09164038E176F
S11328409F0741F48C819D8190936403809363037B
S113285014C0FC01309731F0848195818C179D0759
S1132860C1F707C01D821C821F821E82DF91CF9197
S113287008958C819D81958384830E940B13F2CFEC
S1132880CF92DF92EF92FF920F931F93CF93DF9338
S11328908C017A01FC0180819181009729F08A34AE
S11328A0910509F051C01EC088E693E00E94991278
S11328B0C82EE6017E01F92EE70109C06C817D81F5
S11328C0CE0102960E9401140990D881C02D209750
S11328D0A9F781E0809367038AE490E0F80191838B
S11328E0808337C06838A9F588E693E00E9499127E
S11328F0C82EE6016E01D92EE60123C0CE01029650
S1132900E816F906D9F488E693E0BE010E949D1208
S1132910E0902D03F0902E038A859B8590932E03DF
S113292080932D03EC85FD85309719F08E859F8566
S11329300995F0922E03E0922D03CECF0990D88111
S1132940C02D2097D9F6C8CFF8011182108283E0F8
S113295001C081E0DF91CF911F910F91FF90EF9023
S1132960DF90CF9008951092670388E693E00E9469
S1132970951289E591E060E070E00E94C711089526
S11329800F931F93CF93DF93EC0100912D031091CC
S11329902E031B870A875D874C873F872E8780918C
S11329A06703882379F089E591E090932E0380935F
S11329B02D03CE0102960E94011410932E0300935E
S11329C02D0302C07D836C8388E693E0BE010E94E0
S11329D09D1288E693E0BE010E94ED12DF91CF9133
S11329E01F910F910895CF93DF93EC0180916703BA
S11329F0882329F0CE0102960E94181404C01F8275
S1132A001E821986188688E693E0BE010E949D12F4
S1132A10DF91CF9108950E94621D08950F931F9333
S1132A20FC01CB0140916A0350916B0333832283F1
S1132A301583048371836083F0936B03E0936A03CB
S1132A404115510511F40E947E1D80E090E01F9114
S1132A500F91089580916A0390916B030097C1F0E0
S1132A6010926B0310926A03DC0114966D917C91B1
S1132A7015971296ED91FC9113970995E0916A03CD
S1132A80F0916B03309721F0808191810E947E1D2B
S1132A9008950E94682008950E9463200895EF928B
S1132AA0FF92CF93DF9320916C0330E0C0E3D0E03A
S1132AB0C21BD30B2F583C4FB901AE010E9480209A
S1132AC0CE01DF91CF91FF90EF900895AF92BF9226
S1132AD0CF92DF92EF92FF920F931F93CF93DF93E6
S1132AE07C01C0906D03D0906E0320916C0330E0A4
S1132AF08601005D1F4F021B130B01381105E0F422
S1132B00C0E3D0E0C21BD30B2F583C4FB901AE0138
S1132B100E948020CE0DDF1D20916F033091700341
S1132B208091230490912404280F391FCE01B90108
S1132B30A6010E94802002C000E010E0C801DF91DD
S1132B40CF911F910F91FF90EF90DF90CF90BF90A6
S1132B50AF90089540916D0350916E039C01481706
S1132B60590798F08091230490912404820F931FB5
S1132B709093240480932304421B530B50936E03BD
S1132B8040936D0321E030E002C020E030E0C90151
S1132B90089590936E0380936D0308952091230408
S1132BA0309124042F553C4FC901089520916C03A2
S1132BB030E02F583C4FC901089521E030E0809166
S1132BC06F039091700343E0813A940711F420E07D
S1132BD030E0C90108950E94DD15009771F021EAE3
S1132BE033E060916F037091700340916D035091D5
S1132BF06E03C9010E9480200895A0912304B0911E
S1132C0024041097B9F020916D0330916E03205D78
S1132C103F4FAF55BC4FE1EAF3E080E390E003C0DF
S1132C204D914193019682179307D4F31092240493
S1132C3010922304089580916F0390917003089576
S1132C4080916D0390916E03089580E390916C03DD
S1132C50891B20916D0330916E03280F311DC9012A
S1132C6008951F93CF93DF93EC0110916C03812F90
S1132C7090E08C179D076CF00E9425168C0F9D1F09
S1132C808138910530F41C1B10936C0321E030E073
S1132C9002C020E030E0C901DF91CF911F91089577
S1132CA0CF93DF93EEE9FAE0119211928AE0EE3CC1
S1132CB0F807D1F7C0E0D0E0CE01880F991F8A56FB
S1132CC0954F63E971E00E94DA032196C430D1057F
S1132CD099F7DF91CF910895109224041092230460
S1132CE010926E0310926D0380E380936C0381EA6B
S1132CF093E09093700380936F030E94501608959D
S1132D00CF92DF92EF92FF920F931F93DF93CF93B3
S1132D1000D0CDB7DEB78C0169837A830E946C162C
S1132D2069817A81C62ED72E21E8C216D10418F003
S1132D3030E8C32ED12C80916F0390917003B801B9
S1132D40A6010E948020D0926E03C0926D03C6013A
S1132D500F900F90CF91DF911F910F91FF90EF9003
S1132D60DF90CF900895282F392FD901EEE9FAE0AA
S1132D7080E301900D928150E1F7862F972FDC01BB
S1132D80E6E9FAE088E001900D928150E1F70895B8
S1132D90EEE9FAE0282F392FD90180E30D90019252
S1132DA08150E1F7A6E9BAE0862F972FFC0188E06D
S1132DB001900D928150E1F7089581E791E00E941E
S1132DC00D1281E691E00E940D1289E691E00E94C5
S1132DD00D120895EF92FF920F931F93CF93DF93F9
S1132DE00E94DD150097C9F089E691E00E942D123A
S1132DF0E82EE7017E01F92EE701209791F10E9468
S1132E002016998388830E941B169B838A83C7019B
S1132E1004960E944F158CAB24C081E691E00E9479
S1132E202D12EC017E01F92EE7012097D1F081E704
S1132E3091E00E942D128C0199838883009779F088
S1132E4002960E946615F80191838083B8016E543E
S1132E507F4FC8018E579F4F0E94B31602C0C0E037
S1132E60D0E0CE01DF91CF911F910F91FF90EF90B1
S1132E700895FC0180819181BC016E547F4F8E576F
S1132E809F4F0E94B3160895CF93DF93EC0181E620
S1132E9091E0BE010E947812009749F0688179811F
S1132EA081E791E00E94531281E691E009C089E62E
S1132EB091E0BE010E947812009729F089E691E022
S1132EC0BE010E945312DF91CF910895EF92FF92B9
S1132ED0CF93DF93EC0181E691E0BE010E9478126A
S1132EE0009791F00990D881C02D68817981CE0135
S1132EF002960E948016BE016E547F4FCE018E57FB
S1132F009F4F0E94C8161BC089E691E0BE010E9433
S1132F1078120097A1F00E946C16688179818A81E9
S1132F209B810E9480168CA990E00E9431160E9419
S1132F30D6154CA92496BE0150E00E948020DF9152
S1132F40CF91FF90EF900895DC01ED91FC911197E2
S1132F5070E06F5B7F4F660F771FE60FF71F80816E
S1132F60918108951F920F920FB60F920BB60F9294
S1132F7011242F933F934F935F936F937F938F937A
S1132F809F93AF93BF93EF93FF938CB1E091D00ADB
S1132F90F091D10A309709F00995FF91EF91BF9113
S1132FA0AF919F918F917F916F915F914F913F91DD
S1132FB02F910F900BBE0F900FBE0F901F9018957E
S1132FC01F920F920FB60F920BB60F9211242F93EC
S1132FD03F934F935F936F937F938F939F93AF939D
S1132FE0BF93EF93FF9380919C00E091CE0AF09100
S1132FF0CF0A309709F00995FF91EF91BF91AF91F6
S11330009F918F917F916F915F914F913F912F91FC
S11330100F900BBE0F900FBE0F901F901895882332
S113302061F41092900069B988E98AB940939500D7
S11330301092D10A1092D00A0895813069F4109246
S113304098006093990088E980939A0040939D00CA
S11330501092CF0A1092CE0A0895882321F45D9B22
S1133060FECF6CB90895813031F480919B0085FFC7
S1133070FCCF60939C0008951F93182F8A3031F47D
S11330808091810A6DE00E942D1802C08D3029F0D4
S11330908091810A612F0E942D1880E090E01F9199
S11330A008958093810A89E791E09093E60A8093DA
S11330B0E50A08958AB387608ABB8BB387608BBBAC
S11330C008952BB3287F82FF02C040E001C044E092
S11330D080FF02C030E001C032E051E081FD50E0E9
S11330E0252B242B232B2BBB0895C0988FB9779BBA
S11330F0FECFC09A0895C0981FB8779BFECF8FB1BA
S1133100C09A90E00895CF93DF9389B7806489BF14
S113311083E090E00E947518C0918800D0918900E6
S11331200E947B1886FD0AC08091880090918900D6
S1133130885490408C1B9D0B97FDF2CF81E08093C7
S1133140830ADF91CF910895C09880648FB9779BEB
S1133150FECF8FB11FB8779BFECF2FB1922F80E0A7
S11331601FB8779BFECF2FB1C09A30E0282B392BA4
S1133170C9010895C0988FB9779BFECF7FB9779B1B
S1133180FECF6FB9779BFECF1FB8779BFECFC09A57
S113319008951F93182F85E190E00E94A418BC01A4
S11331A0607E812F90E08F719070682B792B85E180
S11331B090E00E94BA181F91089521E030E08499AC
S11331C002C020E030E0C901089521E030E00E990A
S11331D002C020E030E0C9010895C0988FE78FB99C
S11331E0779BFECF8FB11FB8779BFECF8FB181E065
S11331F090E00E94D402C09AC09888E08FB9779B6F
S1133200FECFC09AC09888E08FB9779BFECFC09A52
S11332100895CF93DF931092830AC0918800D091D0
S113322089000E947B1883FF0AC0809188009091D6
S11332308900805D92408C1B9D0B97FDF2CF86E048
S113324090E00E94751889B78F7B89BF0E9902C0E0
S11332500E94ED18DF91CF9108958091820A813008
S113326081F48091840A882321F00E9483181092AB
S1133270840A8091850A882321F00E9409191092FA
S1133280850A8091820A81508093820A08950F935F
S11332901F93CF93DF93EC018B018091820A8F5FA0
S11332A08093820A89E090E00E947518802F8E5FD7
S11332B0C0989EE39FB9779BFECF8FB9779BFECFD3
S11332C0C09AC0988EE38FB9779BFECF20E008C0E8
S11332D08C0F9D1FFC0180818FB9779BFECF2F5FE0
S11332E0822F90E08017910798F3C09A0E942D19BD
S11332F080E090E0DF91CF911F910F91089580912C
S1133300830A882379F48091820A882321F081E05A
S11333108093840A07C081E08093820A0E94831804
S11333200E942D1981E090E008951F938091830AF3
S11333308823B1F08091820A882321F081E0809370
S1133340850A0EC011E01093820A0E947B1883FF45
S113335003C01093850A02C00E9409190E942D1906
S113336081E090E01F910895EF92FF920F931F93D5
S1133370CF93DF938091820A8823D1F581E08093F3
S1133380820A8091830A882329F40E947F1901E02C
S113339010E002C000E010E08091830A882341F429
S11333A00E942D190115110519F10E94951920C0CB
S11333B0C0918800D09189000E947B1881FD0AC0C9
S11333C08091880090918900885490408C1B9D0BBB
S11333D097FDF2CFC1E0D0E0869902C0C0E0D0E012
S11333E00115110511F00E9495190E942D1902C0B2
S11333F0C1E0D0E0CE01DF91CF911F910F91FF90FA
S1133400EF900895C0982FE72FB9779BFECF2FB187
S113341040E009C01FB8779BFECF2FB1FC01E40F39
S1133420F11D20834F5F242F30E02617370794F3D4
S113343081E090E00E94D402C09A0895DF92EF9256
S1133440FF920F931F93DF93CF9300D0CDB7DEB7D6
S11334508C017B010E9B62C01092860A8091820AC5
S11334608F5F8093820A8091D30A9091D40A019647
S11334709093D40A8093D30AC0988FE78FB9779B2F
S1133480FECF8FB11FB8779BFECFDFB081E090E015
S11334900E94D402C09AD7FC0AC08D2D833038F024
S11334A06D2D70E062507040E616F70628F40E9415
S11334B0ED180E942D1932C0C8010E94021ACE01D3
S11334C0019662E070E00E94021A2A8127FF12C06E
S11334D089818093D20A2F772093DD0A992787FD6B
S11334E090959093A70A8093A60A2093A40A109219
S11334F0A50A02C082E0D82E0E9B09C0B79903C06A
S11335000E94ED1804C087E891E00E94EA110E942D
S11335102D192D2D30E02250304002C020E030E043
S1133520C9010F900F90CF91DF911F910F91FF90E0
S1133530EF90DF900895CF93DF93EC018881998118
S1133540009729F022E08D37920701F505C08DE739
S113355092E0998388831EC06238E1F40E946C165D
S11335608091870A9091880A9093A90A8093A80A67
S11335700E94CE1560E870E00E941E1A0E94C915D0
S1133580E091C001F091C1010995E1CF198218823F
S113359083E001C081E0DF91CF9108950F931F93E1
S11335A0CF93DF932091820A2F5F2093820A909316
S11335B08A0A8093890AEC01CC0FDD1FCC0FDD1F32
S11335C0C80FD91FC25DDE4B00918800109189009D
S11335D00E947B1886FD0AC0809188009091890022
S11335E0805D9240801B910B97FDF2CF0091880083
S11335F0109189000E947B1883FF0AC08091880083
S113360090918900805D9240801B910B97FDF2CFD1
S113361088E190E0BE010E94BA188091830A882351
S113362021F083E090E00E9475180E942D1981E03A
S113363090E0DF91CF911F910F910895CF92DF9287
S1133640EF92FF920F931F93DF93CF93CDB7DEB723
S11336502C970FB6F894DEBF0FBECDBF6C018A0164
S11336608091820A8F5F8093820AE0908800F090B4
S113367089006B877C870E947B186B857C8586FD1F
S11336800AC02091880030918900205D32402E19B3
S11336903F0937FDEECFC982DA82C09888EE8FB930
S11336A0779BFECF80E88FB9779BFECFFE013196E2
S11336B0CE010396DF012D912FB9779BFECFA8177A
S11336C0B907C9F7C09A69837A83C0982AEE2FB9DB
S11336D0779BFECF20E82FB9779BFECF21912FB99E
S11336E0779BFECFE817F907C9F7C09A01151105B2
S11336F0F1F0D801CE010396FE013B962D91229361
S1133700E817F907D9F7C09820EE2FB9779BFECFB9
S113371020E82FB9779BFECFFE01339608962191BE
S11337202FB9779BFECFE817F907C9F7C09A0E9413
S11337302D192C960FB6F894DEBF0FBECDBFCF91D6
S1133740DF911F910F91FF90EF90DF90CF9008953C
S11337501F931FB7F8940E94FE1C89B78F7B89BF03
S11337608AB780638ABF80E488BF1FBFDD9A8AEF6F
S113377090E00E94D402DE988FE790E00E94D40289
S1133780DE9A8DE790E00E94D40281E090E00E94EE
S1133790751881E190E00E94A418BC016061786012
S11337A081E190E00E94BA1882E190E060E075E067
S11337B00E94BA1887E190E00E94A418BC017062CC
S11337C087E190E00E94BA188CE190E06FE770E026
S11337D00E94BA1889E190E00E94A418BC017D7F80
S11337E089E190E00E94BA188FEF9FEF60E070E0EB
S11337F040E050E00E941E1B8AE190E00E94CE1A35
S11338000E94ED1887E891E060E070E00E94C71123
S113381081E090E01F91089580E488BF87E891E0FB
S11338200E94EA118091D70A9091D80A9093880A4D
S11338308093870A8091860A8F5F8093860A80919D
S1133840D50A9091D60A01969093D60A8093D50A08
S113385081E090E00895EF92FF92CF93DF938091FF
S1133860820A8F5F8093820A85E190E00E94A41807
S1133870EC010E942D19CF71D070CE01DF91CF9150
S1133880FF90EF900895CF92DF92EF92FF920F9303
S11338901F93DF93CF9300D0CDB7DEB77C01809127
S11338A0820A8F5F8093820A8091AA0A9091AB0A60
S11338B0009749F00E942B1C8C018091AA0A815028
S11338C00E94C91802C000E010E083E090E00E946A
S11338D07518C0908800D09089000E947B1881FDE3
S11338E00AC08091880090918900805D92408C1973
S11338F09D0997FDF2CF85E090E00E94751884EF52
S113390091E0849B54C08091D70A9091D80A9A83FD
S113391089838091BA0A9091BB0A84309105E9F4B5
S1133920C0988E2D815080688FB9779BFECF089404
S1133930E108F108F694E79480ECE822EFB8779B6D
S1133940FECFFE013196CE01039621912FB9779BCC
S1133950FECFE817F907C9F7C09A0E947B1883FFC6
S113396032C0E0908800F09089000E947B1883FFA9
S11339700AC08091880090918900805D92408E19E0
S11339809F0997FDF2CF8091830A882311F40E9446
S113399009198091AA0A9091AB0A009719F0802F17
S11339A00E94C9180E942D1920E030E010C0019730
S11339B009F0A7CF8091AA0A9091AB0A009719F059
S11339C0802F0E94C9180E942D1922E030E0C901FD
S11339D00F900F90CF91DF911F910F91FF90EF9077
S11339E0DF90CF900895CF93DF93EB010E944719A6
S11339F0CE010E94431CDF91CF91089580B584606D
S1133A0080BD0E94F61FD69AD59ABF988E988C983E
S1133A101698DE9AC09AC09A08951F920F920FB614
S1133A200F920BB60F9211242F933F934F935F93F2
S1133A306F937F938F939F93AF93BF93EF93FF9372
S1133A400E940C1CFF91EF91BF91AF919F918F91B8
S1133A507F916F915F914F913F912F910F900BBE8A
S1133A600F900FBE0F901F9018951F920F920FB6D4
S1133A700F920BB60F9211242F933F934F935F93A2
S1133A806F937F938F939F93AF93BF93EF93FF9322
S1133A90EDE7F0E08081817C80830E942A15FF910C
S1133AA0EF91BF91AF919F918F917F916F915F91B2
S1133AB04F913F912F910F900BBE0F900FBE0F901F
S1133AC01F9018959FB7F894EDE7F0E08081817C12
S1133AD08083ECE7F0E080818E63808310928B001A
S1133AE0EAE8F0E0108210928C00109289001092A3
S1133AF088008081856080839FBF08952FB7F894E4
S1133B009093870080938600ECE7F0E080818E63D9
S1133B108083EDE7F0E08081806180832FBF08958A
S1133B2088E190E02FE00FB6F894A89581BD0FBE10
S1133B3021BD089588E10FB6F89481BD11BC0FBE74
S1133B400895EF92FF92CF93DF93FC01DB0185E0B0
S1133B50EB0119928A95E9F7858190E08370907062
S1133B60009711F082E08C93878190E083709070CD
S1133B70009721F082E012968C931297858190E051
S1133B8083709070009799F0878190E083709070B3
S1133B90009769F02389348981859285281739072C
S1133BA031F481E0848312961C92129701C014822E
S1133BB0858183708250823030F4C82FD0E0C251A6
S1133BC0DE4F888101C080E011968C931197E781C4
S1133BD0E370E250E23028F4F0E0E251FE4F8081DD
S1133BE001C080E013968C931397DF91CF91FF90DF
S1133BF0EF900895DF93CF9300D000D00F92CDB70C
S1133C00DEB7BE016F5F7F4F0E94A11D89812A81AB
S1133C1030E0280F311D2D5F3F4F8B81280F311D60
S1133C208C81280F311D8D81280F311DC9010F9002
S1133C300F900F900F900F90CF91DF910895AF9256
S1133C40BF92CF92DF92EF92FF920F931F93DF9375
S1133C50CF9300D000D00F92CDB7DEB78C017B019B
S1133C606A01BE016F5F7F4F0E94A11DA9802A8156
S1133C70622F70E0BB803C81432F50E0CB018A0D62
S1133C80911D03968B0D911D840F951FED818E0F51
S1133C90911DC816D9060CF4A3C0D8011196EC9155
S1133CA01197F0E0E170F07083E0EE0FFF1F8A954A
S1133CB0E1F712968C91129790E081709070F4E085
S1133CC0880F991FFA95E1F78E2B9C919770892B99
S1133CD01396AC91B0E0A170B070E5E0AA0FBB1FE1
S1133CE0EA95E1F78A2BF801A481B0E0A170B070E5
S1133CF096E0AA0FBB1F9A95E1F78A2BD7018C9304
S1133D00E581F0E0E370F070EE0FFF1FEE0FFF1F90
S1133D10D80116968C91169790E083709070F4E019
S1133D20880F991FFA95E1F78E2B17969C91179798
S1133D309295990F990F907C982BF701918318967F
S1133D408C9118978283FA2DF23069F419968C912C
S1133D50D70113968C931397F801828514968C934C
S1133D60149785E001C083E0E22FF0E03B96E00F7A
S1133D70F11F982F08C0D701A90FB11DC290CC9292
S1133D809F5F6150704061157105A9F7280FFB2DE5
S1133D90F23089F4F701E20FF11DD80153968C91AA
S1133DA0539780832F5FF701E20FF11D54968C9196
S1133DB0549780832F5FE32FF0E07596E00FF11F97
S1133DC0822F08C0D701A80FB11D92919C938F5FD9
S1133DD04150504041155105A9F7230F30E002C06E
S1133DE020E030E0C9010F900F900F900F900F90DA
S1133DF0CF91DF911F910F91FF90EF90DF90CF90C3
S1133E00BF90AF900895AF92BF92CF92DF92EF929E
S1133E10FF920F931F93CF93DF937C016B01EA0111
S1133E20633071050CF4B1C0F7018081A82EA2940F
S1133E30A694A69443E0A422F1E0AF22F701918175
S1133E40292F269526952370B92EB294B694B6944C
S1133E5033E0B322382F37703883382F36953695B0
S1133E60369531703983382F329531703A83829583
S1133E70869581708B83AC822D83892F8295837084
S1133E808E83BF828281888787010D5F1F4F222323
S1133E9061F1F801918180E0F7013381830F911D75
S1133EA09A87898787010B5F1F4F223081F4CE01E7
S1133EB00B9663E971E00E94DA03F80181818B8734
S1133EC0F70185818C878701095F1F4F16C0233056
S1133ED0A1F4F7013D96DE011B9682918D93E017C4
S1133EE0F107D9F7085F1F4F08C0CE010B9663E9AD
S1133EF071E00E94DA031A861986BB2099F1AA2080
S1133F0059F4F801918180E02081820F911D9C8BEE
S1133F108B8B0E5F1F4F04C089859A859C8B8B8B7E
S1133F20FB2DF23071F4CE01459663E971E00E94F5
S1133F30DA03F80181818D8B80818E8B0E5F1F4F98
S1133F4019C0FB2DF330B1F4085F1F4FD801FE01F7
S1133F50759680E090E02E9121930196883091052A
S1133F60D1F708C0CE01459663E971E00E94DA03F7
S1133F701C8A1B8A98012E193F098C2D821B8FA73E
S1133F801EA70DA7C216D30614F420E030E0C90121
S1133F90DF91CF911F910F91FF90EF90DF90CF9021
S1133FA0BF90AF900895CF93DF93EC017B836A8336
S1133FB00E94C70299838883DF91CF910895CF939C
S1133FC0DF93EC010E94C70228813981821B930B85
S1133FD0019621E030E04A815B814817590710F0CF
S1133FE020E030E0C901DF91CF91089587B3876065
S1133FF087BB88B3866088BB80E58DB981E08EB9C4
S11340000895AA1BBB1B51E107C0AA1FBB1FA6171B
S1134010B70710F0A61BB70B881F991F5A95A9F76D
S113402080959095BC01CD010895AF92BF92CF9237
S1134030DF92EF92FF920F931F93CF93DF93EC01E4
S1134040688179818A819B8161157105810591055A
S113405021F464E279ED8BE597E02DE133EF41E063
S113406050E00E94C62379018A0127EA31E440E046
S113407050E00E94A7235B016C01C801B7012CEE3C
S113408034EF4FEF5FEF0E94A7236A0D7B1D8C1D59
S11340909D1D97FF04C06150704080409048688324
S11340A079838A839B837F77CB01DF91CF911F91A3
S11340B00F91FF90EF90DF90CF90BF90AF90089555
S11340C00E94152008958DE191E00E941520089525
S11340D0A0E0B0E080931D0190931E01A0931F0106
S11340E0B09320010895FB01DC0104C08D9101907F
S11340F0801921F441505040C8F7881B990B08954A
S1134100FB01DC0102C001900D9241505040D8F7F0
S11341100895DC0101C06D9341505040E0F70895CB
S1134120DF93CF93CDB7DEB7FE01359661917191E0
S11341308091E50A9091E60ADC0113962C9113977D
S1134140286013962C93AF010E94E720E091E50AC2
S1134150F091E60A2381277F2383CF91DF9108958D
S1134160EF92FF920F931F93CF93DF938C01E09113
S1134170E50AF091E60A838181FF1FC0C0E0D0E028
S11341800AC0DB011896ED91FC91199709950097E7
S113419011F0CFEFDFEFF80181918F016091E50A13
S11341A07091E60A882369F7DB011896ED91FC917A
S11341B019978AE00995009711F0CFEFDFEFCE0150
S11341C0DF91CF911F910F91FF90EF9008952F925F
S11341D03F924F925F926F927F928F929F92AF9293
S11341E0BF92CF92DF92EF92FF920F931F93DF93D0
S11341F0CF93CDB7DEB72C970FB6F894DEBF0FBEC2
S1134200CDBF6C011B018A01FC01178216828381D8
S113421081FFD1C12E010894411C511CF6019381E8
S1134220F10193FD859193FF81911F01882309F486
S1134230BEC1853239F493FD859193FF81911F01AD
S1134240853229F490E0B6010E941D23E7CFEE24C5
S1134250FF2420E02032B0F48B3269F08C3228F451
S1134260803251F0833271F40BC08D3239F08033D7
S113427049F421602CC02260246029C0286027C032
S1134280206125C027FD2CC0382F30533A3098F4D4
S113429026FF08C08E2D880FE82EEE0CEE0CE80EDB
S11342A0E30E15C08F2D880FF82EFF0CFF0CF80EAF
S11342B0F30E20620CC08E3221F426FD78C12064F6
S11342C006C08C3611F4206802C0883649F4F10126
S11342D093FD859193FF81911F01882309F0BACF43
S11342E0982F9554933018F09052933028F40C5F23
S11342F01F4FFFE3F9830DC0833631F0833771F02C
S1134300833509F060C022C0F801808189830E5F83
S11343101F4F420171E0A72EB12C16C062E0662E39
S1134320712C600E711EF8018080918026FF03C0FD
S11343306E2D70E002C06FEF7FEFC4012C870E94E6
S113434012235C0183012C852F7717C052E0652E60
S1134350712C600E711EF8018080918026FF03C0CD
S11343606E2D70E002C06FEF7FEFC4012C870E94B6
S113437007235C012C852068830123FD20C008C02D
S113438080E290E0B6012C870E941D23FA942C85CC
S11343908F2D90E0A816B90698F311C0F40127FDFB
S11343A0859127FF81914F0190E0B6012C870E94EF
S11343B01D232C85F110FA940894A108B108A114C6
S11343C0B10461F7F1C0843611F0893649F527FF4D
S11343D008C0F80160817181828193810C5F1F4F55
S11343E009C0F80160817181882777FD8095982F35
S11343F00E5F1F4F4FE6B42EB22297FF09C090956F
S11344008095709561957F4F8F4F9F4FF0E8BF2A3D
S1134410A2012AE030E00E944923782E741845C096
S1134420853731F43FEEB32EB2222AE030E025C0C6
S113443099EFB92EB2228F36C1F0803720F4883537
S113444009F0B5C00DC0803721F0883709F0AFC03E
S113445002C020E1B22AB4FE0BC084E0B82A08C02E
S1134460B4FE09C0E6E0BE2A06C028E030E005C07C
S113447020E130E002C020E132E0B7FE08C0F801DC
S113448060817181828193810C5F1F4F07C0F801A5
S11344906081718180E090E00E5F1F4FA2010E9455
S11344A04923782E7418FFE7BF22B6FE0BC02EEF07
S11344B0B2227E1438F4B4FE07C0B2FC05C08FEEFD
S11344C0B82202C0A72C01C0AE2C8B2D90E0B4FE04
S11344D00DC0FE01E70DF11D2081203319F4E9EE32
S11344E0BE2209C0A394B2FE06C004C086789070B0
S11344F0009709F0A3948B2C9924B3FC14C0B0FE4C
S11345000FC0AF1428F4E72CEF0CEA18AF2C08C046
S1134510E72C06C080E290E0B6010E941D23A3941C
S1134520AF14C0F304C0AF1410F4FA1801C0FF2490
S113453084FE0FC080E390E0B6010E941D2382FE3A
S11345401FC081FE03C088E590E010C088E790E0BA
S11345500DC0C40186789070009791F081FC02C070
S113456080E201C08BE2B7FC8DE290E0B6010E94CC
S11345701D2306C080E390E0B6010E941D23EA9447
S11345807E14C0F37A94F201E70DF11D808190E06E
S1134590B6010E941D237720A9F706C080E290E0AF
S11345A0B6010E941D23FA94FF20C1F737CEF6010D
S11345B02681378102C02FEF3FEFC9012C960FB639
S11345C0F894DEBF0FBECDBFCF91DF911F910F9145
S11345D0FF90EF90DF90CF90BF90AF909F908F901F
S11345E07F906F905F904F903F902F900895DC01E3
S11345F0CB01FC01E199FECF06C0FFBBEEBBE09A04
S113460031960DB20D9241505040B8F70895FC0117
S11346100590615070400110D8F7809590958E0FE9
S11346209F1F0895FC016150704001900110D8F75C
S1134630809590958E0F9F1F08950F931F93CF938E
S1134640DF938C01EB018B8181FF1BC082FF0DC0C6
S11346502E813F818C819D812817390764F4E8817C
S1134660F9810193F983E88306C0E885F985802FF1
S11346700995009731F48E819F8101969F838E83E3
S113468002C00FEF1FEFC801DF91CF911F910F916F
S11346900895FA01AA27283051F1203181F1E894D4
S11346A06F936E7F6E5F7F4F8F4F9F4FAF4FB1E021
S11346B03ED0B4E03CD0670F781F891F9A1FA11D1C
S11346C0680F791F8A1F911DA11D6A0F711D811D1D
S11346D0911DA11D20D009F468943F912AE0269FE2
S11346E011243019305D3193DEF6CF010895462F41
S11346F04770405D4193B3E00FD0C9F7F6CF462F22
S11347004F70405D4A3318F0495D31FD405241938A
S113471002D0A9F7EACFB4E0A69597958795779547
S11347206795BA95C9F700976105710508959B01CE
S1134730AC010A2E06945795479537952795BA9557
S1134740C9F7620F731F841F951FA01D0895629FF0
S1134750D001739FF001829FE00DF11D649FE00D75
S1134760F11D929FF00D839FF00D749FF00D659FD6
S1134770F00D9927729FB00DE11DF91F639FB00DD5
S1134780E11DF91FBD01CF011124089597FB092EE6
S113479005260ED057FD04D014D00AD0001C38F4DE
S11347A050954095309521953F4F4F4F5F4F089559
S11347B0F6F790958095709561957F4F8F4F9F4F39
S11347C00895A1E21A2EAA1BBB1BFD010DC0AA1F4E
S11347D0BB1FEE1FFF1FA217B307E407F50720F066
S11347E0A21BB30BE40BF50B661F771F881F991FE1
S11347F01A9469F760957095809590959B01AC012A
S10D4800BD01CF010895F894FFCF25
S113480A48656C6C6F2C20776F726C640052696D0A
S113481A6500582D4D41430043534D4100010000AA
S113482A000000B900000000002D0057030B041C0F
S113483A000600040069026D021B0002008B028D4F
S113484A0206000800C302CB0205000800FB0203AB
S113485A030000421300000000000040140000009E
S113486A000200080025042D04350002003D043F1F
S113487A04BA000800A904B1040000000200000000
S113488A003C180000000000009B1A0000000021F0
S113489A01000000000D011904F303B404B304C5B4
S11348AA05B90518100000000051078F08B8060062
S11348BA80C0E0F0F8FCFEFF1201FE0C050BE70CC9
S11348CA1D0A640951096109A10D320D180151101B
S11348DA820E440E4A0E500E560EA81B4719431C4C
S11348EAF31C1E1AB419DD18E5187F199519020864
S9030000FC
